{
  "contractName": "BathPair",
  "abi": [
    {
      "anonymous": false,
      "inputs": [
        {
          "indexed": false,
          "internalType": "uint256",
          "name": "askId",
          "type": "uint256"
        },
        {
          "indexed": false,
          "internalType": "uint256",
          "name": "askAmt",
          "type": "uint256"
        },
        {
          "indexed": false,
          "internalType": "uint256",
          "name": "bidId",
          "type": "uint256"
        },
        {
          "indexed": false,
          "internalType": "uint256",
          "name": "bidAmt",
          "type": "uint256"
        },
        {
          "indexed": false,
          "internalType": "uint256",
          "name": "timestamp",
          "type": "uint256"
        },
        {
          "indexed": false,
          "internalType": "address",
          "name": "strategist",
          "type": "address"
        }
      ],
      "name": "LogStrategistTrade",
      "type": "event"
    },
    {
      "anonymous": false,
      "inputs": [
        {
          "indexed": false,
          "internalType": "address",
          "name": "strategist",
          "type": "address"
        },
        {
          "indexed": false,
          "internalType": "address",
          "name": "asset",
          "type": "address"
        },
        {
          "indexed": false,
          "internalType": "uint256",
          "name": "amountOfReward",
          "type": "uint256"
        },
        {
          "indexed": false,
          "internalType": "uint256",
          "name": "timestamp",
          "type": "uint256"
        }
      ],
      "name": "StrategistRewardClaim",
      "type": "event"
    },
    {
      "inputs": [],
      "name": "RubiconMarketAddress",
      "outputs": [
        {
          "internalType": "address",
          "name": "",
          "type": "address"
        }
      ],
      "stateMutability": "view",
      "type": "function",
      "constant": true
    },
    {
      "inputs": [],
      "name": "bathAssetAddress",
      "outputs": [
        {
          "internalType": "address",
          "name": "",
          "type": "address"
        }
      ],
      "stateMutability": "view",
      "type": "function",
      "constant": true
    },
    {
      "inputs": [],
      "name": "bathHouse",
      "outputs": [
        {
          "internalType": "address",
          "name": "",
          "type": "address"
        }
      ],
      "stateMutability": "view",
      "type": "function",
      "constant": true
    },
    {
      "inputs": [],
      "name": "bathQuoteAddress",
      "outputs": [
        {
          "internalType": "address",
          "name": "",
          "type": "address"
        }
      ],
      "stateMutability": "view",
      "type": "function",
      "constant": true
    },
    {
      "inputs": [],
      "name": "initialized",
      "outputs": [
        {
          "internalType": "bool",
          "name": "",
          "type": "bool"
        }
      ],
      "stateMutability": "view",
      "type": "function",
      "constant": true
    },
    {
      "inputs": [],
      "name": "maxOrderSizeBPS",
      "outputs": [
        {
          "internalType": "uint256",
          "name": "",
          "type": "uint256"
        }
      ],
      "stateMutability": "view",
      "type": "function",
      "constant": true
    },
    {
      "inputs": [
        {
          "internalType": "uint256",
          "name": "",
          "type": "uint256"
        }
      ],
      "name": "outstandingPairIDs",
      "outputs": [
        {
          "internalType": "uint256",
          "name": "askId",
          "type": "uint256"
        },
        {
          "internalType": "uint256",
          "name": "askAmt",
          "type": "uint256"
        },
        {
          "internalType": "uint256",
          "name": "bidId",
          "type": "uint256"
        },
        {
          "internalType": "uint256",
          "name": "bidAmt",
          "type": "uint256"
        },
        {
          "internalType": "uint256",
          "name": "timestamp",
          "type": "uint256"
        },
        {
          "internalType": "address",
          "name": "strategist",
          "type": "address"
        }
      ],
      "stateMutability": "view",
      "type": "function",
      "constant": true
    },
    {
      "inputs": [
        {
          "internalType": "address",
          "name": "",
          "type": "address"
        }
      ],
      "name": "strategist2FillsAsset",
      "outputs": [
        {
          "internalType": "uint256",
          "name": "",
          "type": "uint256"
        }
      ],
      "stateMutability": "view",
      "type": "function",
      "constant": true
    },
    {
      "inputs": [
        {
          "internalType": "address",
          "name": "",
          "type": "address"
        }
      ],
      "name": "strategist2FillsQuote",
      "outputs": [
        {
          "internalType": "uint256",
          "name": "",
          "type": "uint256"
        }
      ],
      "stateMutability": "view",
      "type": "function",
      "constant": true
    },
    {
      "inputs": [],
      "name": "underlyingAsset",
      "outputs": [
        {
          "internalType": "address",
          "name": "",
          "type": "address"
        }
      ],
      "stateMutability": "view",
      "type": "function",
      "constant": true
    },
    {
      "inputs": [],
      "name": "underlyingQuote",
      "outputs": [
        {
          "internalType": "address",
          "name": "",
          "type": "address"
        }
      ],
      "stateMutability": "view",
      "type": "function",
      "constant": true
    },
    {
      "inputs": [
        {
          "internalType": "address",
          "name": "_bathAssetAddress",
          "type": "address"
        },
        {
          "internalType": "address",
          "name": "_bathQuoteAddress",
          "type": "address"
        },
        {
          "internalType": "address",
          "name": "_bathHouse",
          "type": "address"
        },
        {
          "internalType": "uint256",
          "name": "_maxOrderSizeBPS",
          "type": "uint256"
        },
        {
          "internalType": "int128",
          "name": "_shapeCoefNum",
          "type": "int128"
        }
      ],
      "name": "initialize",
      "outputs": [],
      "stateMutability": "nonpayable",
      "type": "function"
    },
    {
      "inputs": [
        {
          "internalType": "uint16",
          "name": "val",
          "type": "uint16"
        }
      ],
      "name": "setMaxOrderSizeBPS",
      "outputs": [],
      "stateMutability": "nonpayable",
      "type": "function"
    },
    {
      "inputs": [
        {
          "internalType": "int128",
          "name": "val",
          "type": "int128"
        }
      ],
      "name": "setShapeCoefNum",
      "outputs": [],
      "stateMutability": "nonpayable",
      "type": "function"
    },
    {
      "inputs": [
        {
          "internalType": "uint256",
          "name": "val",
          "type": "uint256"
        }
      ],
      "name": "setSearchRadius",
      "outputs": [],
      "stateMutability": "nonpayable",
      "type": "function"
    },
    {
      "inputs": [],
      "name": "getThisBathQuote",
      "outputs": [
        {
          "internalType": "address",
          "name": "",
          "type": "address"
        }
      ],
      "stateMutability": "view",
      "type": "function",
      "constant": true
    },
    {
      "inputs": [],
      "name": "getThisBathAsset",
      "outputs": [
        {
          "internalType": "address",
          "name": "",
          "type": "address"
        }
      ],
      "stateMutability": "view",
      "type": "function",
      "constant": true
    },
    {
      "inputs": [],
      "name": "getOutstandingPairCount",
      "outputs": [
        {
          "internalType": "uint256",
          "name": "",
          "type": "uint256"
        }
      ],
      "stateMutability": "view",
      "type": "function",
      "constant": true
    },
    {
      "inputs": [],
      "name": "getSearchRadius",
      "outputs": [
        {
          "internalType": "uint256",
          "name": "",
          "type": "uint256"
        }
      ],
      "stateMutability": "view",
      "type": "function",
      "constant": true
    },
    {
      "inputs": [
        {
          "internalType": "uint256",
          "name": "askNumerator",
          "type": "uint256"
        },
        {
          "internalType": "uint256",
          "name": "askDenominator",
          "type": "uint256"
        },
        {
          "internalType": "uint256",
          "name": "bidNumerator",
          "type": "uint256"
        },
        {
          "internalType": "uint256",
          "name": "bidDenominator",
          "type": "uint256"
        }
      ],
      "name": "executeStrategy",
      "outputs": [],
      "stateMutability": "nonpayable",
      "type": "function"
    },
    {
      "inputs": [],
      "name": "rebalancePair",
      "outputs": [],
      "stateMutability": "nonpayable",
      "type": "function"
    },
    {
      "inputs": [],
      "name": "bathScrub",
      "outputs": [],
      "stateMutability": "nonpayable",
      "type": "function"
    },
    {
      "inputs": [
        {
          "internalType": "uint8",
          "name": "_start",
          "type": "uint8"
        },
        {
          "internalType": "uint8",
          "name": "_end",
          "type": "uint8"
        }
      ],
      "name": "indexScrub",
      "outputs": [],
      "stateMutability": "nonpayable",
      "type": "function"
    },
    {
      "inputs": [
        {
          "internalType": "address",
          "name": "asset",
          "type": "address"
        },
        {
          "internalType": "address",
          "name": "bathTokenAddress",
          "type": "address"
        }
      ],
      "name": "getMaxOrderSize",
      "outputs": [
        {
          "internalType": "uint256",
          "name": "maxOrderSize",
          "type": "uint256"
        }
      ],
      "stateMutability": "view",
      "type": "function",
      "constant": true
    },
    {
      "inputs": [
        {
          "internalType": "uint256",
          "name": "id",
          "type": "uint256"
        }
      ],
      "name": "removeLiquidity",
      "outputs": [],
      "stateMutability": "nonpayable",
      "type": "function"
    },
    {
      "inputs": [],
      "name": "strategistBootyClaim",
      "outputs": [],
      "stateMutability": "nonpayable",
      "type": "function"
    }
  ],
  "bytecode": "0x608060405234801561001057600080fd5b50613bee806100206000396000f3fe608060405234801561001057600080fd5b506004361061018d5760003560e01c8063613e8993116100de5780639c8f9f2311610097578063af07acb211610071578063af07acb2146102ff578063c12e818514610307578063ca8c43291461030f578063e22a7807146103175761018d565b80639c8f9f23146102d1578063a7001d23146102e4578063ac90539c146102f75761018d565b8063613e89931461027e5780637158da7c1461028657806371a4188b1461028e5780637d1c98fa146102ae57806398ef3041146102c15780639b92ea75146102c95761018d565b80632af956441161014b5780633d924596116101255780633d9245961461023657806349fd49e81461024957806360c38b281461026e57806360f71b24146102765761018d565b80632af956441461020857806335bac71e1461021b5780633c4fc85d1461022e5761018d565b80623acabc14610192578063028d01fe146101b057806314a933b2146101c5578063158ef93e146101d857806318447307146101ed5780632646df2614610200575b600080fd5b61019a61031f565b6040516101a791906137ff565b60405180910390f35b6101c36101be3660046136e9565b610349565b005b6101c36101d336600461370b565b610369565b6101e0610385565b6040516101a7919061387c565b6101c36101fb3660046136cf565b610395565b6101c36103d3565b6101c361021636600461364c565b610504565b6101c3610229366004613785565b61091c565b6101c36111c2565b6101c36102443660046137d2565b6114f8565b61025c61025736600461370b565b61169d565b6040516101a796959493929190613b3f565b61019a6116ec565b61019a6116fb565b61019a61170a565b61019a611719565b6102a161029c3660046135dc565b611728565b6040516101a79190613b01565b6102a16102bc3660046135dc565b61173a565b61019a61174c565b6101c361175b565b6101c36102df36600461370b565b6119da565b6102a16102f2366004613614565b611b78565b6102a1611ec5565b61019a611ecb565b6102a1611eda565b6102a1611ee0565b61019a611ee6565b600554600090600160a01b900460ff1661033857600080fd5b506003546001600160a01b03165b90565b6000546001600160a01b0316331461036057600080fd5b61ffff16600755565b6000546001600160a01b0316331461038057600080fd5b600955565b600554600160a01b900460ff1681565b6000546001600160a01b031633146103ac57600080fd5b60068054600f9290920b6001600160801b03166001600160801b0319909216919091179055565b60008060009054906101000a90046001600160a01b03166001600160a01b031663c9dec3616040518163ffffffff1660e01b815260040160206040518083038186803b15801561042257600080fd5b505afa158015610436573d6000803e3d6000fd5b505050506040513d601f19601f8201168201806040525081019061045a9190613723565b600c54600854600954929350909180820183116104885782811061048357506000905081610488565b508082035b815b8183018110156104df57844203600c82815481106104a457fe5b90600052602060002090600602016004015410156104d7576104c581611f0f565b6104ce8161229a565b60001991820191015b60010161048a565b50826009548301106104f55760006008556104fe565b60095482016008555b50505050565b600554600160a01b900460ff161561051b57600080fd5b600080546001600160a01b038086166001600160a01b031992831617835560038054898316908416179081905560048054898416941693909317835560408051636f307dc360e01b815290519190921692636f307dc392808201926020929091829003018186803b15801561058f57600080fd5b505afa1580156105a3573d6000803e3d6000fd5b505050506040513d601f19601f820116820180604052508101906105c791906135f8565b6001600160a01b031614156105db57600080fd5b6004805460408051636f307dc360e01b815290516000936001600160a01b0390931692636f307dc392808201926020929091829003018186803b15801561062157600080fd5b505afa158015610635573d6000803e3d6000fd5b505050506040513d601f19601f8201168201806040525081019061065991906135f8565b6001600160a01b0316141561066d57600080fd5b600360009054906101000a90046001600160a01b03166001600160a01b0316636f307dc36040518163ffffffff1660e01b815260040160206040518083038186803b1580156106bb57600080fd5b505afa1580156106cf573d6000803e3d6000fd5b505050506040513d601f19601f820116820180604052508101906106f391906135f8565b600180546001600160a01b0319166001600160a01b039283161790556004805460408051636f307dc360e01b815290519190931692636f307dc39281810192602092909190829003018186803b15801561074c57600080fd5b505afa158015610760573d6000803e3d6000fd5b505050506040513d601f19601f8201168201806040525081019061078491906135f8565b600280546001600160a01b0319166001600160a01b03928316179055600080546040805163f1be167960e01b815290519293919091169163f1be167991600480820192602092909190829003018186803b1580156107e157600080fd5b505afa1580156107f5573d6000803e3d6000fd5b505050506040513d601f19601f8201168201806040525081019061081991906135f8565b6001600160a01b0316141561082d57600080fd5b60008054906101000a90046001600160a01b03166001600160a01b031663f1be16796040518163ffffffff1660e01b815260040160206040518083038186803b15801561087957600080fd5b505afa15801561088d573d6000803e3d6000fd5b505050506040513d601f19601f820116820180604052508101906108b191906135f8565b60058054600794909455600680546001600160801b0319166001600160801b03600f9590950b949094169390931790925560006008556002600955600160a01b6001600160a01b03199093166001600160a01b03919091161760ff60a01b1916919091179055505050565b600054604051636071015d60e01b815233916001600160a01b031690636071015d9061094c9084906004016137ff565b60206040518083038186803b15801561096457600080fd5b505afa158015610978573d6000803e3d6000fd5b505050506040513d601f19601f8201168201806040525081019061099c91906136af565b15156001146109c65760405162461bcd60e51b81526004016109bd90613ab4565b60405180910390fd5b6000851180156109d65750600084115b806109ec57506000831180156109ec5750600082115b6109f557600080fd5b6001546002546003546004546000546001600160a01b039485169493841693928316929182169116610a278584611b78565b8a1115610a465760405162461bcd60e51b81526004016109bd906138f7565b610a508483611b78565b881115610a6f5760405162461bcd60e51b81526004016109bd90613a8d565b806001600160a01b0316638f259e456040518163ffffffff1660e01b815260040160206040518083038186803b158015610aa857600080fd5b505afa158015610abc573d6000803e3d6000fd5b505050506040513d601f19601f82011682018060405250810190610ae09190613723565b600c5410610b005760405162461bcd60e51b81526004016109bd9061391e565b60008a118015610b105750600089115b80610b265750600088118015610b265750600087115b610b425760405162461bcd60e51b81526004016109bd9061397b565b600060405180608001604052808c8152602001876001600160a01b031681526020018b8152602001866001600160a01b03168152509050600060405180608001604052808b8152602001600260009054906101000a90046001600160a01b03166001600160a01b031681526020018a8152602001600160009054906101000a90046001600160a01b03166001600160a01b031681525090506000600360009054906101000a90046001600160a01b03166001600160a01b031663271e442684600001518560200151866040015187606001516040518563ffffffff1660e01b8152600401610c339493929190613b0a565b602060405180830381600087803b158015610c4d57600080fd5b505af1158015610c61573d6000803e3d6000fd5b505050506040513d601f19601f82011682018060405250810190610c859190613723565b60048054845160208601516040808801516060890151915163138f221360e11b81529697506000966001600160a01b039095169563271e442695610ccc9594939101613b0a565b602060405180830381600087803b158015610ce657600080fd5b505af1158015610cfa573d6000803e3d6000fd5b505050506040513d601f19601f82011682018060405250810190610d1e9190613723565b6040805160c08101825284815286516020820190815281830184815287516060840190815242608085019081523360a08601908152600c805460018101825560009190915286517fdf6966c971051c3d54ec59162606531493a51404a002842f56009d7e5cf4a8c7600690920291820181905595517fdf6966c971051c3d54ec59162606531493a51404a002842f56009d7e5cf4a8c8820181905594517fdf6966c971051c3d54ec59162606531493a51404a002842f56009d7e5cf4a8c9820181905593517fdf6966c971051c3d54ec59162606531493a51404a002842f56009d7e5cf4a8ca820181905592517fdf6966c971051c3d54ec59162606531493a51404a002842f56009d7e5cf4a8cb820181905591517fdf6966c971051c3d54ec59162606531493a51404a002842f56009d7e5cf4a8cc90910180546001600160a01b0319166001600160a01b038316179055965197985094967fde7b0fdd5aebd45f74365d8f0fdf3281b1e85adc7b2da2bd54fd18d6f8af53f996610ea39691613b3f565b60405180910390a150506001546003546040516370a0823160e01b81526001600160a01b039283169b506370a082319a50610eec99509116965060040194506137ff9350505050565b60206040518083038186803b158015610f0457600080fd5b505afa158015610f18573d6000803e3d6000fd5b505050506040513d601f19601f82011682018060405250810190610f3c9190613723565b61105a606461105460008054906101000a90046001600160a01b03166001600160a01b0316630c7d5cd86040518163ffffffff1660e01b815260040160206040518083038186803b158015610f9057600080fd5b505afa158015610fa4573d6000803e3d6000fd5b505050506040513d601f19601f82011682018060405250810190610fc89190613723565b600360009054906101000a90046001600160a01b03166001600160a01b03166318160ddd6040518163ffffffff1660e01b815260040160206040518083038186803b15801561101657600080fd5b505afa15801561102a573d6000803e3d6000fd5b505050506040513d601f19601f8201168201806040525081019061104e9190613723565b9061237f565b906123df565b111561106557600080fd5b600254600480546040516370a0823160e01b81526001600160a01b03938416936370a08231936110999390911691016137ff565b60206040518083038186803b1580156110b157600080fd5b505afa1580156110c5573d6000803e3d6000fd5b505050506040513d601f19601f820116820180604052508101906110e99190613723565b6111b7606461105460008054906101000a90046001600160a01b03166001600160a01b0316630c7d5cd86040518163ffffffff1660e01b815260040160206040518083038186803b15801561113d57600080fd5b505afa158015611151573d6000803e3d6000fd5b505050506040513d601f19601f820116820180604052508101906111759190613723565b60048054604080516318160ddd60e01b815290516001600160a01b03909216926318160ddd928282019260209290829003018186803b15801561101657600080fd5b11156104fe57600080fd5b336000908152600d6020908152604080832054600e90925290912054811561136957600a546001546040516370a0823160e01b8152600092611279929091611054916001600160a01b0316906370a08231906112229030906004016137ff565b60206040518083038186803b15801561123a57600080fd5b505afa15801561124e573d6000803e3d6000fd5b505050506040513d601f19601f820116820180604052508101906112729190613723565b869061237f565b60015460405163a9059cbb60e01b81529192506001600160a01b03169063a9059cbb906112ac903390859060040161383c565b602060405180830381600087803b1580156112c657600080fd5b505af11580156112da573d6000803e3d6000fd5b505050506040513d601f19601f820116820180604052508101906112fe91906136af565b506001546040517f8afb4737140665599f05cec36207b46aee019c8b4acf9276d0a5cc6bb85ace62916113409133916001600160a01b03169085904290613813565b60405180910390a150600a80548390039055336000908152600d60205260409020805483900390555b80156114f457600b546002546040516370a0823160e01b8152600092611404929091611054916001600160a01b0316906370a08231906113ad9030906004016137ff565b60206040518083038186803b1580156113c557600080fd5b505afa1580156113d9573d6000803e3d6000fd5b505050506040513d601f19601f820116820180604052508101906113fd9190613723565b859061237f565b60025460405163a9059cbb60e01b81529192506001600160a01b03169063a9059cbb90611437903390859060040161383c565b602060405180830381600087803b15801561145157600080fd5b505af1158015611465573d6000803e3d6000fd5b505050506040513d601f19601f8201168201806040525081019061148991906136af565b506002546040517f8afb4737140665599f05cec36207b46aee019c8b4acf9276d0a5cc6bb85ace62916114cb9133916001600160a01b03169085904290613813565b60405180910390a150600b80548290039055336000908152600e60205260409020805482900390555b5050565b600054604051636071015d60e01b815233916001600160a01b031690636071015d906115289084906004016137ff565b60206040518083038186803b15801561154057600080fd5b505afa158015611554573d6000803e3d6000fd5b505050506040513d601f19601f8201168201806040525081019061157891906136af565b15156001146115995760405162461bcd60e51b81526004016109bd90613ab4565b600c5460ff80841682036000190190858503168210156115cb5760405162461bcd60e51b81526004016109bd906138a1565b845b8460ff168160ff1611611695576115e68160ff16611f0f565b8115611604576115f88160ff1661229a565b6000199091019061168d565b8460ff168160ff16101561162b5761161e8160ff1661229a565b600019948501940161168d565b8460ff168160ff16141561168d57600c80548061164457fe5b600082815260208120600660001990930192830201818155600181018290556002810182905560038101829055600481019190915560050180546001600160a01b031916905590555b6001016115cd565b505050505050565b600c81815481106116ad57600080fd5b6000918252602090912060069091020180546001820154600283015460038401546004850154600590950154939550919390926001600160a01b031686565b6000546001600160a01b031681565b6005546001600160a01b031681565b6002546001600160a01b031681565b6001546001600160a01b031681565b600e6020526000908152604090205481565b600d6020526000908152604090205481565b6003546001600160a01b031681565b600354600480546001546002546040516370a0823160e01b81526001600160a01b039586169593841694928416939091169160009183916370a08231916117a4918991016137ff565b60206040518083038186803b1580156117bc57600080fd5b505afa1580156117d0573d6000803e3d6000fd5b505050506040513d601f19601f820116820180604052508101906117f49190613723565b90506000836001600160a01b03166370a08231866040518263ffffffff1660e01b815260040161182491906137ff565b60206040518083038186803b15801561183c57600080fd5b505afa158015611850573d6000803e3d6000fd5b505050506040513d601f19601f820116820180604052508101906118749190613723565b60008054604051630f9e6ec560e11b815292935090916001600160a01b0390911690631f3cdd8a906118aa9030906004016137ff565b60206040518083038186803b1580156118c257600080fd5b505afa1580156118d6573d6000803e3d6000fd5b505050506040513d601f19601f820116820180604052508101906118fa91906137b6565b60ff16905082156119685760405163b3f865f760e01b81526001600160a01b0388169063b3f865f79061193590899088908690600401613855565b600060405180830381600087803b15801561194f57600080fd5b505af1158015611963573d6000803e3d6000fd5b505050505b81156119d15760405163b3f865f760e01b81526001600160a01b0387169063b3f865f79061199e908a9089908690600401613855565b600060405180830381600087803b1580156119b857600080fd5b505af11580156119cc573d6000803e3d6000fd5b505050505b50505050505050565b806119f75760405162461bcd60e51b81526004016109bd90613a56565b6000611a0282612446565b60015460208201519192506001600160a01b0391821691161415611ac257600c5460005b81811015611abb5783600c8281548110611a3c57fe5b9060005260206000209060060201600001541415611ab357600c8181548110611a6157fe5b60009182526020909120600690910201600501546001600160a01b03163314611a9c5760405162461bcd60e51b81526004016109bd90613a0f565b611aa581611f0f565b611aae8161229a565b611abb565b600101611a26565b50506114f4565b60025460208201516001600160a01b03908116911614156114f457600c5460005b818110156104fe5783600c8281548110611af957fe5b9060005260206000209060060201600201541415611b7057600c8181548110611b1e57fe5b60009182526020909120600690910201600501546001600160a01b03163314611b595760405162461bcd60e51b81526004016109bd90613a0f565b611b6281611f0f565b611b6b8161229a565b6104fe565b600101611ae3565b6001546002546000916001600160a01b03908116918116908516821480611bb05750806001600160a01b0316856001600160a01b0316145b611bb957600080fd5b600654600090611bce90600f0b6103e861250c565b90506000866001600160a01b03166370a08231876040518263ffffffff1660e01b8152600401611bfe91906137ff565b60206040518083038186803b158015611c1657600080fd5b505afa158015611c2a573d6000803e3d6000fd5b505050506040513d601f19601f82011682018060405250810190611c4e9190613723565b905060008111611c705760405162461bcd60e51b81526004016109bd906139b2565b6000611c7a61255f565b905080600f0b60001415611caf57611ca36127106110548460075461237f90919063ffffffff16565b95505050505050611ebf565b846001600160a01b0316886001600160a01b03161415611dfc57600480546040516370a0823160e01b8152600092611d579286926001600160a01b03808b16936370a0823193611d0293921691016137ff565b60206040518083038186803b158015611d1a57600080fd5b505afa158015611d2e573d6000803e3d6000fd5b505050506040513d601f19601f82011682018060405250810190611d529190613723565b6126ff565b9050600160401b611d688284612736565b600f0b1315611d9957611d8c6127106110548560075461237f90919063ffffffff16565b9650505050505050611ebf565b6000611db66127106110548660075461237f90919063ffffffff16565b90506000611ddd611dd887611dd3611dce8789612736565b61276c565b612736565b6127bc565b90506000611deb8284612811565b9950611ebf98505050505050505050565b836001600160a01b0316886001600160a01b03161415611eb9576003546040516370a0823160e01b8152600091611e4f9185916001600160a01b03808b16926370a0823192611d029216906004016137ff565b9050600160401b611e60828461250c565b600f0b1315611e8457611d8c6127106110548560075461237f90919063ffffffff16565b6000611ea16127106110548660075461237f90919063ffffffff16565b90506000611ddd611dd887611dd3611dce878961250c565b50505050505b92915050565b600c5490565b6004546001600160a01b031681565b60095490565b60075481565b600554600090600160a01b900460ff16611eff57600080fd5b506004546001600160a01b031690565b6000600c8281548110611f1e57fe5b600091825260208083206040805160c081018252600690940290910180548085526001820154938501939093526002810154918401919091526003810154606084015260048101546080840152600501546001600160a01b031660a0830152909250611f8990612446565b90506000611f9a8360400151612446565b825160208501518251606087015187519495509290910392910390156121205781156120b857611fd08260018760a00151612879565b600354604051631063a4cf60e31b81526001600160a01b039091169063831d267890612000908590600401613b01565b600060405180830381600087803b15801561201a57600080fd5b505af115801561202e573d6000803e3d6000fd5b50505050846020015182146120b357600354855160208701516001600160a01b039092169162efa895919061206390866128d6565b6040518363ffffffff1660e01b8152600401612080929190613b31565b600060405180830381600087803b15801561209a57600080fd5b505af11580156120ae573d6000803e3d6000fd5b505050505b612120565b6003548551602087015160405162efa89560e01b81526001600160a01b039093169262efa895926120ed929091600401613b31565b600060405180830381600087803b15801561210757600080fd5b505af115801561211b573d6000803e3d6000fd5b505050505b60408501511561169557801561222a576121408160008760a00151612879565b60048054604051631063a4cf60e31b81526001600160a01b039091169163831d26789161216f91859101613b01565b600060405180830381600087803b15801561218957600080fd5b505af115801561219d573d6000803e3d6000fd5b505050508460600151811461222557600454604086015160608701516001600160a01b039092169162efa89591906121d590856128d6565b6040518363ffffffff1660e01b81526004016121f2929190613b31565b600060405180830381600087803b15801561220c57600080fd5b505af1158015612220573d6000803e3d6000fd5b505050505b611695565b600480546040808801516060890151915162efa89560e01b81526001600160a01b039093169362efa89593612260939101613b31565b600060405180830381600087803b15801561227a57600080fd5b505af115801561228e573d6000803e3d6000fd5b50505050505050505050565b600c805460001981019081106122ac57fe5b9060005260206000209060060201600c82815481106122c757fe5b60009182526020909120825460069092020190815560018083015490820155600280830154908201556003808301549082015560048083015490820155600591820154910180546001600160a01b0319166001600160a01b03909216919091179055600c80548061233457fe5b600082815260208120600660001990930192830201818155600181018290556002810182905560038101829055600481019190915560050180546001600160a01b0319169055905550565b60008261238e57506000611ebf565b8282028284828161239b57fe5b04146123d85760405162461bcd60e51b8152600401808060200182810382526021815260200180613b986021913960400191505060405180910390fd5b9392505050565b6000808211612435576040805162461bcd60e51b815260206004820152601a60248201527f536166654d6174683a206469766973696f6e206279207a65726f000000000000604482015290519081900360640190fd5b81838161243e57fe5b049392505050565b61244e613590565b6005546040516322bc934560e11b81526000918291829182916001600160a01b0390911690634579268a90612487908990600401613b01565b60806040518083038186803b15801561249f57600080fd5b505afa1580156124b3573d6000803e3d6000fd5b505050506040513d601f19601f820116820180604052508101906124d7919061373b565b604080516080810182529485526001600160a01b0393841660208601528401919091521660608201529450505050505b919050565b600081600f0b6000141561251f57600080fd5b600082600f0b604085600f0b901b8161253457fe5b05905060016001607f1b03198112801590612556575060016001607f1b038113155b6123d857600080fd5b600554600154600254604051630374fc6f60e01b81526000936001600160a01b039081169385938593630374fc6f9361259f938116921690600401613887565b60206040518083038186803b1580156125b757600080fd5b505afa1580156125cb573d6000803e3d6000fd5b505050506040513d601f19601f820116820180604052508101906125ef9190613723565b600254600154604051630374fc6f60e01b81529293506000926001600160a01b0380871693630374fc6f9361262c93918316921690600401613887565b60206040518083038186803b15801561264457600080fd5b505afa158015612658573d6000803e3d6000fd5b505050506040513d601f19601f8201168201806040525081019061267c9190613723565b9050811580612689575080155b1561269a5760009350505050610346565b60006126a583612446565b905060006126b283612446565b905060006126f46126ed6126d7846040015185600001516123df90919063ffffffff16565b855160408701516126e7916123df565b90612933565b60026126ff565b965050505050505090565b60008161270b57600080fd5b6000612717848461298d565b905060016001607f1b036001600160801b03821611156123d857600080fd5b6000600f83810b9083900b0260401d60016001607f1b03198112801590612556575060016001607f1b038113156123d857600080fd5b600081600f0b6000141561277f57600080fd5b600082600f0b600160801b8161279157fe5b05905060016001607f1b031981128015906127b3575060016001607f1b038113155b611ebf57600080fd5b6000600160461b82600f0b126127d157600080fd5b683fffffffffffffffff1982600f0b12156127ee57506000612507565b611ebf608083600f0b700171547652b82fe1777d0ffda0d23a7d1202901d612ad7565b60008161282057506000611ebf565b600083600f0b121561283157600080fd5b600f83900b6001600160801b038316810260401c90608084901c026001600160c01b0381111561286057600080fd5b60401b811981111561287157600080fd5b019392505050565b81156128aa576001600160a01b0381166000908152600d60205260409020805484019055600a8054840190556128d1565b6001600160a01b0381166000908152600e60205260409020805484019055600b8054840190555b505050565b60008282111561292d576040805162461bcd60e51b815260206004820152601e60248201527f536166654d6174683a207375627472616374696f6e206f766572666c6f770000604482015290519081900360640190fd5b50900390565b6000828201838110156123d8576040805162461bcd60e51b815260206004820152601b60248201527f536166654d6174683a206164646974696f6e206f766572666c6f770000000000604482015290519081900360640190fd5b60008161299957600080fd5b60006001600160c01b0384116129be5782604085901b816129b657fe5b049050612ac3565b60c084811c64010000000081106129d7576020918201911c5b6201000081106129e9576010918201911c5b61010081106129fa576008918201911c5b60108110612a0a576004918201911c5b60048110612a1a576002918201911c5b60028110612a29576001820191505b60bf820360018603901c6001018260ff0387901b81612a4457fe5b0492506001600160801b03831115612a5b57600080fd5b608085901c83026001600160801b038616840260c088901c604089901b82811015612a87576001820391505b608084901b92900382811015612a9e576001820391505b829003608084901c8214612aae57fe5b888181612ab757fe5b04870196505050505050505b6001600160801b038111156123d857600080fd5b6000600160461b82600f0b12612aec57600080fd5b683fffffffffffffffff1982600f0b1215612b0957506000612507565b6001607f1b60006780000000000000008416600f0b1315612b3b5770016a09e667f3bcc908b2fb1366ea957d3e0260801c5b60008367400000000000000016600f0b1315612b68577001306fe0a31b7152de8d5a46305c85edec0260801c5b60008367200000000000000016600f0b1315612b95577001172b83c7d517adcdf7c8c50eb14a791f0260801c5b60008367100000000000000016600f0b1315612bc25770010b5586cf9890f6298b92b71842a983630260801c5b60008367080000000000000016600f0b1315612bef577001059b0d31585743ae7c548eb68ca417fd0260801c5b60008367040000000000000016600f0b1315612c1c57700102c9a3e778060ee6f7caca4f7a29bde80260801c5b60008367020000000000000016600f0b1315612c495770010163da9fb33356d84a66ae336dcdfa3f0260801c5b60008367010000000000000016600f0b1315612c7657700100b1afa5abcbed6129ab13ec11dc95430260801c5b600083668000000000000016600f0b1315612ca25770010058c86da1c09ea1ff19d294cf2f679b0260801c5b600083664000000000000016600f0b1315612cce577001002c605e2e8cec506d21bfc89a23a00f0260801c5b600083662000000000000016600f0b1315612cfa57700100162f3904051fa128bca9c55c31e5df0260801c5b600083661000000000000016600f0b1315612d26577001000b175effdc76ba38e31671ca9397250260801c5b600083660800000000000016600f0b1315612d5257700100058ba01fb9f96d6cacd4b180917c3d0260801c5b600083660400000000000016600f0b1315612d7e5770010002c5cc37da9491d0985c348c68e7b30260801c5b600083660200000000000016600f0b1315612daa577001000162e525ee054754457d59952920260260801c5b600083660100000000000016600f0b1315612dd65770010000b17255775c040618bf4a4ade83fc0260801c5b6000836580000000000016600f0b1315612e01577001000058b91b5bc9ae2eed81e9b7d4cfab0260801c5b6000836540000000000016600f0b1315612e2c57700100002c5c89d5ec6ca4d7c8acc017b7c90260801c5b6000836520000000000016600f0b1315612e575770010000162e43f4f831060e02d839a9d16d0260801c5b6000836510000000000016600f0b1315612e8257700100000b1721bcfc99d9f890ea069117630260801c5b6000836508000000000016600f0b1315612ead5770010000058b90cf1e6d97f9ca14dbcc16280260801c5b6000836504000000000016600f0b1315612ed8577001000002c5c863b73f016468f6bac5ca2b0260801c5b6000836502000000000016600f0b1315612f0357700100000162e430e5a18f6119e3c02282a50260801c5b6000836501000000000016600f0b1315612f2e577001000000b1721835514b86e6d96efd1bfe0260801c5b60008364800000000016600f0b1315612f5857700100000058b90c0b48c6be5df846c5b2ef0260801c5b60008364400000000016600f0b1315612f825770010000002c5c8601cc6b9e94213c72737a0260801c5b60008364200000000016600f0b1315612fac577001000000162e42fff037df38aa2b219f060260801c5b60008364100000000016600f0b1315612fd65770010000000b17217fba9c739aa5819f44f90260801c5b60008364080000000016600f0b1315613000577001000000058b90bfcdee5acd3c1cedc8230260801c5b60008364040000000016600f0b131561302a57700100000002c5c85fe31f35a6a30da1be500260801c5b60008364020000000016600f0b13156130545770010000000162e42ff0999ce3541b9fffcf0260801c5b60008364010000000016600f0b131561307e57700100000000b17217f80f4ef5aadda455540260801c5b600083638000000016600f0b13156130a75770010000000058b90bfbf8479bd5a81b51ad0260801c5b600083634000000016600f0b13156130d0577001000000002c5c85fdf84bd62ae30a74cc0260801c5b600083632000000016600f0b13156130f957700100000000162e42fefb2fed257559bdaa0260801c5b600083631000000016600f0b1315613122577001000000000b17217f7d5a7716bba4a9ae0260801c5b600083630800000016600f0b131561314b57700100000000058b90bfbe9ddbac5e109cce0260801c5b600083630400000016600f0b13156131745770010000000002c5c85fdf4b15de6f17eb0d0260801c5b600083630200000016600f0b131561319d577001000000000162e42fefa494f1478fde050260801c5b600083630100000016600f0b13156131c65770010000000000b17217f7d20cf927c8e94c0260801c5b6000836280000016600f0b13156131ee577001000000000058b90bfbe8f71cb4e4b33d0260801c5b6000836240000016600f0b131561321657700100000000002c5c85fdf477b662b269450260801c5b6000836220000016600f0b131561323e5770010000000000162e42fefa3ae53369388c0260801c5b6000836210000016600f0b131561326657700100000000000b17217f7d1d351a389d400260801c5b6000836208000016600f0b131561328e5770010000000000058b90bfbe8e8b2d3d4ede0260801c5b6000836204000016600f0b13156132b6577001000000000002c5c85fdf4741bea6e77e0260801c5b6000836202000016600f0b13156132de57700100000000000162e42fefa39fe95583c20260801c5b6000836201000016600f0b1315613306577001000000000000b17217f7d1cfb72b45e10260801c5b60008361800016600f0b131561332d57700100000000000058b90bfbe8e7cc35c3f00260801c5b60008361400016600f0b13156133545770010000000000002c5c85fdf473e242ea380260801c5b60008361200016600f0b131561337b577001000000000000162e42fefa39f02b772c0260801c5b60008361100016600f0b13156133a25770010000000000000b17217f7d1cf7d83c1a0260801c5b60008361080016600f0b13156133c9577001000000000000058b90bfbe8e7bdcbe2e0260801c5b60008361040016600f0b13156133f057700100000000000002c5c85fdf473dea871f0260801c5b60008361020016600f0b13156134175770010000000000000162e42fefa39ef44d910260801c5b60008361010016600f0b131561343e57700100000000000000b17217f7d1cf79e9490260801c5b600083608016600f0b13156134645770010000000000000058b90bfbe8e7bce5440260801c5b600083604016600f0b131561348a577001000000000000002c5c85fdf473de6eca0260801c5b600083602016600f0b13156134b057700100000000000000162e42fefa39ef366f0260801c5b600083601016600f0b13156134d6577001000000000000000b17217f7d1cf79afa0260801c5b600083600816600f0b13156134fc57700100000000000000058b90bfbe8e7bcd6d0260801c5b600083600416600f0b13156135225770010000000000000002c5c85fdf473de6b20260801c5b600083600216600f0b1315613548577001000000000000000162e42fefa39ef3580260801c5b600083600116600f0b131561356e5770010000000000000000b17217f7d1cf79ab0260801c5b600f83810b60401d603f03900b1c60016001607f1b03811115611ebf57600080fd5b60405180608001604052806000815260200160006001600160a01b031681526020016000815260200160006001600160a01b031681525090565b8035600f81900b811461250757600080fd5b6000602082840312156135ed578081fd5b81356123d881613b70565b600060208284031215613609578081fd5b81516123d881613b70565b60008060408385031215613626578081fd5b823561363181613b70565b9150602083013561364181613b70565b809150509250929050565b600080600080600060a08688031215613663578081fd5b853561366e81613b70565b9450602086013561367e81613b70565b9350604086013561368e81613b70565b9250606086013591506136a3608087016135ca565b90509295509295909350565b6000602082840312156136c0578081fd5b815180151581146123d8578182fd5b6000602082840312156136e0578081fd5b6123d8826135ca565b6000602082840312156136fa578081fd5b813561ffff811681146123d8578182fd5b60006020828403121561371c578081fd5b5035919050565b600060208284031215613734578081fd5b5051919050565b60008060008060808587031215613750578384fd5b84519350602085015161376281613b70565b60408601516060870151919450925061377a81613b70565b939692955090935050565b6000806000806080858703121561379a578384fd5b5050823594602084013594506040840135936060013592509050565b6000602082840312156137c7578081fd5b81516123d881613b88565b600080604083850312156137e4578182fd5b82356137ef81613b88565b9150602083013561364181613b88565b6001600160a01b0391909116815260200190565b6001600160a01b0394851681529290931660208301526040820152606081019190915260800190565b6001600160a01b03929092168252602082015260400190565b6001600160a01b03938416815291909216602082015261ffff909116604082015260600190565b901515815260200190565b6001600160a01b0392831681529116602082015260400190565b60208082526036908201527f72616e6765206f6620696e646963657320746f6f20677265617420666f72206f6040820152750eae8e6e8c2dcc8d2dccea0c2d2e4e640d8cadccee8d60531b606082015260800190565b6020808252600d908201526c61736b20746f6f206c6172676560981b604082015260600190565b60208082526039908201527f746f6f206d616e79206f75747374616e64696e672070616972732c20706c656160408201527f73652063616c6c20626174685363727562282920666972737400000000000000606082015260800190565b6020808252601a908201527f6f6e65206f72646572206d757374206265206e6f6e2d7a65726f000000000000604082015260600190565b6020808252603d908201527f6e6f2062617468546f6b656e206c697175696469747920746f2063616c63756c60408201527f617465206d6178206f7264657253697a65207065726d69737361626c65000000606082015260800190565b60208082526027908201527f6f6e6c7920737472617465676973742063616e2063616e63656c207468656972604082015266206f726465727360c81b606082015260800190565b60208082526018908201527f63616e742072656d6f76652061207a65726f206f726465720000000000000000604082015260600190565b6020808252600d908201526c62696420746f6f206c6172676560981b604082015260600190565b6020808252602d908201527f796f7520617265206e6f7420616e20617070726f76656420737472617465676960408201526c39ba1016903130ba342830b4b960991b606082015260800190565b90815260200190565b9384526001600160a01b039283166020850152604084019190915216606082015260800190565b918252602082015260400190565b95865260208601949094526040850192909252606084015260808301526001600160a01b031660a082015260c00190565b6001600160a01b0381168114613b8557600080fd5b50565b60ff81168114613b8557600080fdfe536166654d6174683a206d756c7469706c69636174696f6e206f766572666c6f77a2646970667358221220c4349055838f1eb9f3b165157b2e9ae5eff3c29bd97cf16bc22936240c8b537064736f6c63430007060033",
  "immutableReferences": {},
  "source": "// SPDX-License-Identifier: BUSL-1.1\n\n/// @author Benjamin Hughes - Rubicon\n/// @notice This contract allows a strategist to use user funds in order to market make for a Rubicon pair\n/// @notice The BathPair is the admin for the pair's liquidity and has many security checks in place\n/// @notice This contract is also where strategists claim rewards for successful market making\n\npragma solidity =0.7.6;\npragma experimental ABIEncoderV2;\n\nimport \"@openzeppelin/contracts/token/ERC20/IERC20.sol\";\nimport \"@openzeppelin/contracts/math/SafeMath.sol\";\nimport \"./BathToken.sol\";\nimport \"./BathHouse.sol\";\nimport \"../RubiconMarket.sol\";\nimport \"../peripheral_contracts/ABDKMath64x64.sol\";\n\ncontract BathPair {\n    using SafeMath for uint256;\n\n    address public bathHouse;\n    address public underlyingAsset;\n    address public underlyingQuote;\n\n    address public bathAssetAddress;\n    address public bathQuoteAddress;\n\n    address public RubiconMarketAddress;\n\n    bool public initialized;\n\n    int128 internal shapeCoefNum;\n    uint256 public maxOrderSizeBPS;\n\n    /// @dev Internal variables for localalized searching in bathScrub\n    uint256 internal start;\n    uint256 internal searchRadius;\n\n    uint256 internal totalAssetFills;\n    uint256 internal totalQuoteFills;\n\n    /// @dev [askID, ask.pay_amt, bidID, bid.pay_amt, timestamp]\n    StrategistTrade[] public outstandingPairIDs;\n\n    /// @dev Maps a trade ID to each of their strategists for rewards purposes\n    mapping(address => uint256) public strategist2FillsAsset;\n    mapping(address => uint256) public strategist2FillsQuote;\n\n    struct order {\n        uint256 pay_amt;\n        ERC20 pay_gem;\n        uint256 buy_amt;\n        ERC20 buy_gem;\n    }\n\n    struct StrategistTrade {\n        uint256 askId;\n        uint256 askAmt;\n        uint256 bidId;\n        uint256 bidAmt;\n        uint256 timestamp;\n        address strategist;\n    }\n\n    event LogStrategistTrade(\n        uint256 askId,\n        uint256 askAmt,\n        uint256 bidId,\n        uint256 bidAmt,\n        uint256 timestamp,\n        address strategist\n    );\n\n    event StrategistRewardClaim(\n        address strategist,\n        address asset,\n        uint256 amountOfReward,\n        uint256 timestamp\n    );\n\n    /// @dev Proxy-safe initialization of storage\n    function initialize(\n        address _bathAssetAddress,\n        address _bathQuoteAddress,\n        address _bathHouse,\n        uint256 _maxOrderSizeBPS,\n        int128 _shapeCoefNum\n    ) external {\n        require(!initialized);\n        bathHouse = _bathHouse;\n\n        bathAssetAddress = _bathAssetAddress;\n        bathQuoteAddress = _bathQuoteAddress;\n\n        require(\n            BathToken(bathAssetAddress).underlying() !=\n                address(0x0000000000000000000000000000000000000000)\n        );\n        require(\n            BathToken(bathQuoteAddress).underlying() !=\n                address(0x0000000000000000000000000000000000000000)\n        );\n        underlyingAsset = BathToken(bathAssetAddress).underlying();\n        underlyingQuote = BathToken(bathQuoteAddress).underlying();\n\n        require(\n            BathHouse(bathHouse).getMarket() !=\n                address(0x0000000000000000000000000000000000000000)\n        );\n        RubiconMarketAddress = BathHouse(bathHouse).getMarket();\n\n        maxOrderSizeBPS = _maxOrderSizeBPS;\n        shapeCoefNum = _shapeCoefNum;\n        start = 0;\n        searchRadius = 2;\n        initialized = true;\n    }\n\n    modifier onlyBathHouse() {\n        require(msg.sender == bathHouse);\n        _;\n    }\n\n    modifier onlyApprovedStrategist(address targetStrategist) {\n        require(\n            BathHouse(bathHouse).isApprovedStrategist(targetStrategist) == true,\n            \"you are not an approved strategist - bathPair\"\n        );\n        _;\n    }\n\n    modifier enforceReserveRatio() {\n        _;\n        require(\n            (\n                BathToken(bathAssetAddress).totalSupply().mul(\n                    BathHouse(bathHouse).reserveRatio()\n                )\n            )\n            .div(100) <= IERC20(underlyingAsset).balanceOf(bathAssetAddress)\n        );\n        require(\n            (\n                BathToken(bathQuoteAddress).totalSupply().mul(\n                    BathHouse(bathHouse).reserveRatio()\n                )\n            )\n            .div(100) <= IERC20(underlyingQuote).balanceOf(bathQuoteAddress)\n        );\n    }\n\n    function setMaxOrderSizeBPS(uint16 val) external onlyBathHouse {\n        maxOrderSizeBPS = val;\n    }\n\n    function setShapeCoefNum(int128 val) external onlyBathHouse {\n        shapeCoefNum = val;\n    }\n\n    function setSearchRadius(uint256 val) external onlyBathHouse {\n        searchRadius = val;\n    }\n\n    function getThisBathQuote() external view returns (address) {\n        require(initialized);\n        return bathQuoteAddress;\n    }\n\n    function getThisBathAsset() external view returns (address) {\n        require(initialized);\n        return bathAssetAddress;\n    }\n\n    function getOutstandingPairCount() external view returns (uint256) {\n        return outstandingPairIDs.length;\n    }\n\n    function getSearchRadius() external view returns (uint256) {\n        return searchRadius;\n    }\n\n    // *** Internal Functions ***\n\n    function getMidpointPrice() internal view returns (int128) {\n        address _RubiconMarketAddress = RubiconMarketAddress;\n        uint256 bestAskID = RubiconMarket(_RubiconMarketAddress).getBestOffer(\n            ERC20(underlyingAsset),\n            ERC20(underlyingQuote)\n        );\n        uint256 bestBidID = RubiconMarket(_RubiconMarketAddress).getBestOffer(\n            ERC20(underlyingQuote),\n            ERC20(underlyingAsset)\n        );\n        // Throw a zero if unable to determine midpoint from the book\n        if (bestAskID == 0 || bestBidID == 0) {\n            return 0;\n        }\n        order memory bestAsk = getOfferInfo(bestAskID);\n        order memory bestBid = getOfferInfo(bestBidID);\n        int128 midpoint = ABDKMath64x64.divu(\n            (\n                (bestAsk.buy_amt.div(bestAsk.pay_amt)).add(\n                    bestBid.pay_amt.div(bestBid.buy_amt)\n                )\n            ),\n            2\n        );\n        return midpoint;\n    }\n\n    // orderID of the fill\n    // only log fills for each strategist - needs to be asset specific\n    // isAssetFill are *quotes* that result in asset yield\n    function logFill(\n        uint256 amt,\n        bool isAssetFill,\n        address sender\n    ) internal {\n        // Goal is to map a fill to a strategist\n        if (isAssetFill) {\n            strategist2FillsAsset[sender] += amt;\n            totalAssetFills += amt;\n        } else {\n            strategist2FillsQuote[sender] += amt;\n            totalQuoteFills += amt;\n        }\n    }\n\n    function removeElement(uint256 index) internal {\n        outstandingPairIDs[index] = outstandingPairIDs[\n            outstandingPairIDs.length - 1\n        ];\n        outstandingPairIDs.pop();\n    }\n\n    function handleStratOrderAtIndex(uint256 index) internal {\n        StrategistTrade memory info = outstandingPairIDs[index];\n        order memory offer1 = getOfferInfo(info.askId); //ask\n        order memory offer2 = getOfferInfo(info.bidId); //bid\n        uint256 askDelta = info.askAmt - offer1.pay_amt;\n        uint256 bidDelta = info.bidAmt - offer2.pay_amt;\n\n        // if real\n        if (info.askId != 0) {\n            // if delta > 0 - delta is fill => handle any amount of fill here\n            if (askDelta > 0) {\n                logFill(askDelta, true, info.strategist);\n                BathToken(bathAssetAddress).removeFilledTradeAmount(askDelta);\n                // not a full fill\n                if (askDelta != info.askAmt) {\n                    BathToken(bathAssetAddress).cancel(\n                        info.askId,\n                        info.askAmt.sub(askDelta)\n                    );\n                }\n            }\n            // otherwise didn't fill so cancel\n            else {\n                BathToken(bathAssetAddress).cancel(info.askId, info.askAmt); // pas amount too\n            }\n        }\n\n        // if real\n        if (info.bidId != 0) {\n            // if delta > 0 - delta is fill => handle any amount of fill here\n            if (bidDelta > 0) {\n                logFill(bidDelta, false, info.strategist);\n                BathToken(bathQuoteAddress).removeFilledTradeAmount(bidDelta);\n                // not a full fill\n                if (bidDelta != info.bidAmt) {\n                    BathToken(bathQuoteAddress).cancel(\n                        info.bidId,\n                        info.bidAmt.sub(bidDelta)\n                    );\n                }\n            }\n            // otherwise didn't fill so cancel\n            else {\n                BathToken(bathQuoteAddress).cancel(info.bidId, info.bidAmt); // pass amount too\n            }\n        }\n    }\n\n    // Get offer info from Rubicon Market\n    function getOfferInfo(uint256 id) internal view returns (order memory) {\n        (\n            uint256 ask_amt,\n            ERC20 ask_gem,\n            uint256 bid_amt,\n            ERC20 bid_gem\n        ) = RubiconMarket(RubiconMarketAddress).getOffer(id);\n        order memory offerInfo = order(ask_amt, ask_gem, bid_amt, bid_gem);\n        return offerInfo;\n    }\n\n    // *** External functions that can be called by Strategists ***\n\n    function executeStrategy(\n        uint256 askNumerator, // Quote / Asset\n        uint256 askDenominator, // Asset / Quote\n        uint256 bidNumerator, // size in ASSET\n        uint256 bidDenominator // size in QUOTES\n    ) external enforceReserveRatio onlyApprovedStrategist(msg.sender) {\n        // Require at least one order is non-zero\n        require(\n            (askNumerator > 0 && askDenominator > 0) ||\n                (bidNumerator > 0 && bidDenominator > 0)\n        );\n        address _underlyingAsset = underlyingAsset;\n        address _underlyingQuote = underlyingQuote;\n        address _bathAssetAddress = bathAssetAddress;\n        address _bathQuoteAddress = bathQuoteAddress;\n        address _bathHouse = bathHouse;\n\n        // Enforce dynamic ordersizing and inventory management\n        require(\n            askNumerator <=\n                getMaxOrderSize(_underlyingAsset, _bathAssetAddress),\n            \"ask too large\"\n        );\n        require(\n            bidNumerator <=\n                getMaxOrderSize(_underlyingQuote, _bathQuoteAddress),\n            \"bid too large\"\n        );\n\n        // Enforce that the bath is scrubbed for outstanding pairs\n        require(\n            outstandingPairIDs.length <\n                BathHouse(_bathHouse).maxOutstandingPairCount(),\n            \"too many outstanding pairs, please call bathScrub() first\"\n        );\n        require(\n            (askNumerator > 0 && askDenominator > 0) ||\n                (bidNumerator > 0 && bidDenominator > 0),\n            \"one order must be non-zero\"\n        );\n\n        // Calculate new bid and/or ask\n        order memory ask = order(\n            askNumerator,\n            ERC20(_underlyingAsset),\n            askDenominator,\n            ERC20(_underlyingQuote)\n        );\n        order memory bid = order(\n            bidNumerator,\n            ERC20(underlyingQuote),\n            bidDenominator,\n            ERC20(underlyingAsset)\n        );\n\n        // Place new bid and/or ask\n        uint256 newAskID = BathToken(bathAssetAddress).placeOffer(\n            ask.pay_amt,\n            ask.pay_gem,\n            ask.buy_amt,\n            ask.buy_gem\n        );\n\n        uint256 newBidID = BathToken(bathQuoteAddress).placeOffer(\n            bid.pay_amt,\n            bid.pay_gem,\n            bid.buy_amt,\n            bid.buy_gem\n        );\n\n        // Strategist trade is recorded so they can get paid and the trade is logged for time\n        StrategistTrade memory outgoing = StrategistTrade(\n            newAskID,\n            ask.pay_amt,\n            newBidID,\n            bid.pay_amt,\n            block.timestamp,\n            msg.sender\n        );\n        outstandingPairIDs.push(outgoing);\n\n        emit LogStrategistTrade(\n            outgoing.askId,\n            outgoing.askAmt,\n            outgoing.bidId,\n            outgoing.bidAmt,\n            outgoing.timestamp,\n            outgoing.strategist\n        );\n    }\n\n    // Returns filled liquidity to the correct bath pool - enforce this on permissionless\n    function rebalancePair() public {\n        address _bathAssetAddress = bathAssetAddress;\n        address _bathQuoteAddress = bathQuoteAddress;\n        address _underlyingAsset = underlyingAsset;\n        address _underlyingQuote = underlyingQuote;\n        uint256 bathAssetYield = ERC20(_underlyingQuote).balanceOf(\n            _bathAssetAddress\n        );\n        uint256 bathQuoteYield = ERC20(_underlyingAsset).balanceOf(\n            _bathQuoteAddress\n        );\n        uint16 stratReward = BathHouse(bathHouse).getBPSToStrats(address(this));\n        if (bathAssetYield > 0) {\n            BathToken(_bathAssetAddress).rebalance(\n                _bathQuoteAddress,\n                _underlyingQuote,\n                stratReward\n            );\n        }\n\n        if (bathQuoteYield > 0) {\n            BathToken(_bathQuoteAddress).rebalance(\n                _bathAssetAddress,\n                _underlyingAsset,\n                stratReward\n            );\n        }\n    }\n\n    // This function cleans outstanding orders on a time basis and rebalances yield between bathTokens\n    function bathScrub() external {\n        uint256 timeDelay = BathHouse(bathHouse).timeDelay();\n        uint256 len = outstandingPairIDs.length;\n        uint256 _start = start;\n\n        uint256 _searchRadius = searchRadius;\n        if (_start + _searchRadius >= len) {\n            // start over from beggining\n            if (_searchRadius >= len) {\n                _start = 0;\n                _searchRadius = len;\n            } else {\n                _searchRadius = len - _start;\n            }\n        }\n\n        for (uint256 x = _start; x < _start + _searchRadius; x++) {\n            if (\n                outstandingPairIDs[x].timestamp < (block.timestamp - timeDelay)\n            ) {\n                handleStratOrderAtIndex(x);\n\n                removeElement(x);\n                x--;\n                _searchRadius--;\n            }\n        }\n        if (_start + searchRadius >= len) {\n            start = 0;\n        } else {\n            start = _start + searchRadius;\n        }\n    }\n\n    // Inputs are indices through which to scrub\n    // Zero indexed indices!\n    function indexScrub(uint8 _start, uint8 _end)\n        external\n        onlyApprovedStrategist(msg.sender)\n    {\n        uint256 len = outstandingPairIDs.length;\n        uint256 delta = len - 1 - _end;\n        require(\n            _end - _start <= len,\n            \"range of indices too great for outstandingPairs length\"\n        );\n        for (uint8 x = _start; x <= _end; x++) {\n            handleStratOrderAtIndex(x);\n\n            //delta is indices delta from _end through end of array\n            if (delta > 0) {\n                removeElement(x);\n                delta--;\n            } else if (x < _end) {\n                removeElement(x);\n                x--;\n                _end--;\n            } else if (x == _end) {\n                outstandingPairIDs.pop();\n            }\n        }\n    }\n\n    // Return the largest order size that can be placed as a strategist for given asset and liquidity pool\n    function getMaxOrderSize(address asset, address bathTokenAddress)\n        public\n        view\n        returns (uint256 maxOrderSize)\n    {\n        address _underlyingAsset = underlyingAsset;\n        address _underlyingQuote = underlyingQuote;\n        require(asset == _underlyingAsset || asset == _underlyingQuote);\n        int128 shapeCoef = ABDKMath64x64.div(shapeCoefNum, 1000);\n\n        uint256 underlyingBalance = IERC20(asset).balanceOf(bathTokenAddress);\n        require(\n            underlyingBalance > 0,\n            \"no bathToken liquidity to calculate max orderSize permissable\"\n        );\n\n        // If no midpoint in book, allow **permissioned** strategist to maxOrderSize\n        int128 midpoint = getMidpointPrice();\n        if (midpoint == 0) {\n            return maxOrderSizeBPS.mul(underlyingBalance).div(10000);\n        }\n        // if the asset/quote is overweighted: underlyingBalance / (Proportion of quote allocated to pair) * underlyingQuote balance\n        if (asset == _underlyingAsset) {\n            int128 ratio = ABDKMath64x64.divu(\n                underlyingBalance,\n                IERC20(_underlyingQuote).balanceOf(bathQuoteAddress)\n            );\n            if (ABDKMath64x64.mul(ratio, midpoint) > (2**64)) {\n                // bid at maxSize\n                return maxOrderSizeBPS.mul(underlyingBalance).div(10000);\n            } else {\n                // return dynamic order size\n                uint256 maxSize = maxOrderSizeBPS.mul(underlyingBalance).div(\n                    10000\n                );\n                int128 shapeFactor = ABDKMath64x64.exp(\n                    ABDKMath64x64.mul(\n                        shapeCoef,\n                        ABDKMath64x64.inv(ABDKMath64x64.mul(ratio, midpoint))\n                    )\n                );\n                uint256 dynamicSize = ABDKMath64x64.mulu(shapeFactor, maxSize);\n                return dynamicSize;\n            }\n        } else if (asset == _underlyingQuote) {\n            int128 ratio = ABDKMath64x64.divu(\n                underlyingBalance,\n                IERC20(_underlyingAsset).balanceOf(bathAssetAddress)\n            );\n            if (ABDKMath64x64.div(ratio, midpoint) > (2**64)) {\n                return maxOrderSizeBPS.mul(underlyingBalance).div(10000);\n            } else {\n                // return dynamic order size\n                uint256 maxSize = maxOrderSizeBPS.mul(underlyingBalance).div(\n                    10000\n                );\n                int128 shapeFactor = ABDKMath64x64.exp(\n                    ABDKMath64x64.mul(\n                        shapeCoef,\n                        ABDKMath64x64.inv(ABDKMath64x64.div(ratio, midpoint))\n                    )\n                );\n                uint256 dynamicSize = ABDKMath64x64.mulu(shapeFactor, maxSize);\n                return dynamicSize;\n            }\n        }\n    }\n\n    // This function allows a strategist to remove Pools liquidity from the order book from a trade id\n    function removeLiquidity(uint256 id) external {\n        require(id != 0, \"cant remove a zero order\");\n        order memory ord = getOfferInfo(id);\n        if (ord.pay_gem == ERC20(underlyingAsset)) {\n            uint256 len = outstandingPairIDs.length;\n            for (uint256 x = 0; x < len; x++) {\n                if (outstandingPairIDs[x].askId == id) {\n                    require(\n                        msg.sender == outstandingPairIDs[x].strategist,\n                        \"only strategist can cancel their orders\"\n                    );\n                    handleStratOrderAtIndex(x);\n                    removeElement(x);\n                    break;\n                }\n            }\n        } else if (ord.pay_gem == ERC20(underlyingQuote)) {\n            uint256 len = outstandingPairIDs.length;\n            for (uint256 x = 0; x < len; x++) {\n                if (outstandingPairIDs[x].bidId == id) {\n                    require(\n                        msg.sender == outstandingPairIDs[x].strategist,\n                        \"only strategist can cancel their orders\"\n                    );\n                    handleStratOrderAtIndex(x);\n                    removeElement(x);\n                    break;\n                }\n            }\n        }\n    }\n\n    // function where strategists claim rewards proportional to their quantity of fills\n    function strategistBootyClaim() external {\n        uint256 fillCountA = strategist2FillsAsset[msg.sender];\n        uint256 fillCountQ = strategist2FillsQuote[msg.sender];\n        if (fillCountA > 0) {\n            uint256 booty = (\n                fillCountA.mul(ERC20(underlyingAsset).balanceOf(address(this)))\n            )\n            .div(totalAssetFills);\n            IERC20(underlyingAsset).transfer(msg.sender, booty);\n            emit StrategistRewardClaim(\n                msg.sender,\n                underlyingAsset,\n                booty,\n                block.timestamp\n            );\n            totalAssetFills -= fillCountA;\n            strategist2FillsAsset[msg.sender] -= fillCountA;\n        }\n        if (fillCountQ > 0) {\n            uint256 booty = (\n                fillCountQ.mul(ERC20(underlyingQuote).balanceOf(address(this)))\n            )\n            .div(totalQuoteFills);\n            IERC20(underlyingQuote).transfer(msg.sender, booty);\n            emit StrategistRewardClaim(\n                msg.sender,\n                underlyingQuote,\n                booty,\n                block.timestamp\n            );\n            totalQuoteFills -= fillCountQ;\n            strategist2FillsQuote[msg.sender] -= fillCountQ;\n        }\n    }\n}\n",
  "sourcePath": "/home/ryan/Documents/_Projects/learning/optimism/rubicon_protocol/contracts/rubiconPools/BathPair.sol",
  "compiler": {
    "name": "solc",
    "version": "0.7.6+commit.7338295f.Emscripten.clang"
  },
  "schemaVersion": "3.4.3",
  "updatedAt": "2021-11-11T01:25:44.596Z",
  "networkType": "ethereum",
  "devdoc": {
    "kind": "dev",
    "methods": {
      "initialize(address,address,address,uint256,int128)": {
        "details": "Proxy-safe initialization of storage"
      }
    },
    "stateVariables": {
      "outstandingPairIDs": {
        "details": "[askID, ask.pay_amt, bidID, bid.pay_amt, timestamp]"
      },
      "start": {
        "details": "Internal variables for localalized searching in bathScrub"
      },
      "strategist2FillsAsset": {
        "details": "Maps a trade ID to each of their strategists for rewards purposes"
      }
    },
    "version": 1
  },
  "userdoc": {
    "kind": "user",
    "methods": {},
    "version": 1
  }
}