{
  "contractName": "BathHouse",
  "abi": [
    {
      "inputs": [],
      "name": "RubiconMarketAddress",
      "outputs": [
        {
          "internalType": "address",
          "name": "",
          "type": "address"
        }
      ],
      "stateMutability": "view",
      "type": "function",
      "constant": true
    },
    {
      "inputs": [],
      "name": "admin",
      "outputs": [
        {
          "internalType": "address",
          "name": "",
          "type": "address"
        }
      ],
      "stateMutability": "view",
      "type": "function",
      "constant": true
    },
    {
      "inputs": [
        {
          "internalType": "address",
          "name": "",
          "type": "address"
        }
      ],
      "name": "approvedBathTokens",
      "outputs": [
        {
          "internalType": "bool",
          "name": "",
          "type": "bool"
        }
      ],
      "stateMutability": "view",
      "type": "function",
      "constant": true
    },
    {
      "inputs": [
        {
          "internalType": "address",
          "name": "",
          "type": "address"
        }
      ],
      "name": "approvedPairs",
      "outputs": [
        {
          "internalType": "bool",
          "name": "",
          "type": "bool"
        }
      ],
      "stateMutability": "view",
      "type": "function",
      "constant": true
    },
    {
      "inputs": [
        {
          "internalType": "address",
          "name": "",
          "type": "address"
        }
      ],
      "name": "approvedStrategists",
      "outputs": [
        {
          "internalType": "bool",
          "name": "",
          "type": "bool"
        }
      ],
      "stateMutability": "view",
      "type": "function",
      "constant": true
    },
    {
      "inputs": [
        {
          "internalType": "address",
          "name": "",
          "type": "address"
        },
        {
          "internalType": "address",
          "name": "",
          "type": "address"
        }
      ],
      "name": "getPair",
      "outputs": [
        {
          "internalType": "address",
          "name": "",
          "type": "address"
        }
      ],
      "stateMutability": "view",
      "type": "function",
      "constant": true
    },
    {
      "inputs": [],
      "name": "initialized",
      "outputs": [
        {
          "internalType": "bool",
          "name": "",
          "type": "bool"
        }
      ],
      "stateMutability": "view",
      "type": "function",
      "constant": true
    },
    {
      "inputs": [],
      "name": "maxOutstandingPairCount",
      "outputs": [
        {
          "internalType": "uint256",
          "name": "",
          "type": "uint256"
        }
      ],
      "stateMutability": "view",
      "type": "function",
      "constant": true
    },
    {
      "inputs": [],
      "name": "name",
      "outputs": [
        {
          "internalType": "string",
          "name": "",
          "type": "string"
        }
      ],
      "stateMutability": "view",
      "type": "function",
      "constant": true
    },
    {
      "inputs": [],
      "name": "permissionedStrategists",
      "outputs": [
        {
          "internalType": "bool",
          "name": "",
          "type": "bool"
        }
      ],
      "stateMutability": "view",
      "type": "function",
      "constant": true
    },
    {
      "inputs": [
        {
          "internalType": "address",
          "name": "",
          "type": "address"
        }
      ],
      "name": "propToStrategists",
      "outputs": [
        {
          "internalType": "uint8",
          "name": "",
          "type": "uint8"
        }
      ],
      "stateMutability": "view",
      "type": "function",
      "constant": true
    },
    {
      "inputs": [],
      "name": "reserveRatio",
      "outputs": [
        {
          "internalType": "uint256",
          "name": "",
          "type": "uint256"
        }
      ],
      "stateMutability": "view",
      "type": "function",
      "constant": true
    },
    {
      "inputs": [],
      "name": "timeDelay",
      "outputs": [
        {
          "internalType": "uint256",
          "name": "",
          "type": "uint256"
        }
      ],
      "stateMutability": "view",
      "type": "function",
      "constant": true
    },
    {
      "inputs": [
        {
          "internalType": "address",
          "name": "market",
          "type": "address"
        },
        {
          "internalType": "uint256",
          "name": "_reserveRatio",
          "type": "uint256"
        },
        {
          "internalType": "uint256",
          "name": "_timeDelay",
          "type": "uint256"
        },
        {
          "internalType": "uint256",
          "name": "mopc",
          "type": "uint256"
        }
      ],
      "name": "initialize",
      "outputs": [],
      "stateMutability": "nonpayable",
      "type": "function"
    },
    {
      "inputs": [
        {
          "internalType": "address",
          "name": "asset",
          "type": "address"
        },
        {
          "internalType": "address",
          "name": "quote",
          "type": "address"
        },
        {
          "internalType": "address",
          "name": "pair",
          "type": "address"
        },
        {
          "internalType": "uint8",
          "name": "_propToStrategists",
          "type": "uint8"
        }
      ],
      "name": "initBathPair",
      "outputs": [
        {
          "internalType": "address",
          "name": "newPair",
          "type": "address"
        }
      ],
      "stateMutability": "nonpayable",
      "type": "function"
    },
    {
      "inputs": [
        {
          "internalType": "address",
          "name": "newAdmin",
          "type": "address"
        }
      ],
      "name": "setBathHouseAdmin",
      "outputs": [],
      "stateMutability": "nonpayable",
      "type": "function"
    },
    {
      "inputs": [
        {
          "internalType": "bool",
          "name": "_new",
          "type": "bool"
        }
      ],
      "name": "setPermissionedStrategists",
      "outputs": [],
      "stateMutability": "nonpayable",
      "type": "function"
    },
    {
      "inputs": [
        {
          "internalType": "uint256",
          "name": "value",
          "type": "uint256"
        }
      ],
      "name": "setCancelTimeDelay",
      "outputs": [],
      "stateMutability": "nonpayable",
      "type": "function"
    },
    {
      "inputs": [
        {
          "internalType": "uint256",
          "name": "rr",
          "type": "uint256"
        }
      ],
      "name": "setReserveRatio",
      "outputs": [],
      "stateMutability": "nonpayable",
      "type": "function"
    },
    {
      "inputs": [
        {
          "internalType": "uint8",
          "name": "value",
          "type": "uint8"
        },
        {
          "internalType": "address",
          "name": "pair",
          "type": "address"
        }
      ],
      "name": "setPropToStrats",
      "outputs": [],
      "stateMutability": "nonpayable",
      "type": "function"
    },
    {
      "inputs": [
        {
          "internalType": "uint256",
          "name": "value",
          "type": "uint256"
        }
      ],
      "name": "setMaxOutstandingPairCount",
      "outputs": [],
      "stateMutability": "nonpayable",
      "type": "function"
    },
    {
      "inputs": [
        {
          "internalType": "address",
          "name": "bathToken",
          "type": "address"
        },
        {
          "internalType": "address",
          "name": "newMarket",
          "type": "address"
        }
      ],
      "name": "setBathTokenMarket",
      "outputs": [],
      "stateMutability": "nonpayable",
      "type": "function"
    },
    {
      "inputs": [
        {
          "internalType": "address",
          "name": "bathToken",
          "type": "address"
        },
        {
          "internalType": "address",
          "name": "newAdmin",
          "type": "address"
        }
      ],
      "name": "setBathTokenBathHouse",
      "outputs": [],
      "stateMutability": "nonpayable",
      "type": "function"
    },
    {
      "inputs": [
        {
          "internalType": "address",
          "name": "bathToken",
          "type": "address"
        },
        {
          "internalType": "uint256",
          "name": "newBPS",
          "type": "uint256"
        }
      ],
      "name": "setBathTokenFeeBPS",
      "outputs": [],
      "stateMutability": "nonpayable",
      "type": "function"
    },
    {
      "inputs": [
        {
          "internalType": "address",
          "name": "bathToken",
          "type": "address"
        },
        {
          "internalType": "address",
          "name": "feeTo",
          "type": "address"
        }
      ],
      "name": "setFeeTo",
      "outputs": [],
      "stateMutability": "nonpayable",
      "type": "function"
    },
    {
      "inputs": [
        {
          "internalType": "address",
          "name": "bathPair",
          "type": "address"
        },
        {
          "internalType": "uint16",
          "name": "mosbps",
          "type": "uint16"
        }
      ],
      "name": "setBathPairMOSBPS",
      "outputs": [],
      "stateMutability": "nonpayable",
      "type": "function"
    },
    {
      "inputs": [
        {
          "internalType": "address",
          "name": "bathPair",
          "type": "address"
        },
        {
          "internalType": "uint256",
          "name": "sr",
          "type": "uint256"
        }
      ],
      "name": "setBathPairSearchRadius",
      "outputs": [],
      "stateMutability": "nonpayable",
      "type": "function"
    },
    {
      "inputs": [
        {
          "internalType": "address",
          "name": "bathPair",
          "type": "address"
        },
        {
          "internalType": "int128",
          "name": "val",
          "type": "int128"
        }
      ],
      "name": "setBathPairSCN",
      "outputs": [],
      "stateMutability": "nonpayable",
      "type": "function"
    },
    {
      "inputs": [
        {
          "internalType": "address",
          "name": "newMarket",
          "type": "address"
        }
      ],
      "name": "setMarket",
      "outputs": [],
      "stateMutability": "nonpayable",
      "type": "function"
    },
    {
      "inputs": [],
      "name": "getMarket",
      "outputs": [
        {
          "internalType": "address",
          "name": "",
          "type": "address"
        }
      ],
      "stateMutability": "view",
      "type": "function",
      "constant": true
    },
    {
      "inputs": [],
      "name": "getReserveRatio",
      "outputs": [
        {
          "internalType": "uint256",
          "name": "",
          "type": "uint256"
        }
      ],
      "stateMutability": "view",
      "type": "function",
      "constant": true
    },
    {
      "inputs": [],
      "name": "getCancelTimeDelay",
      "outputs": [
        {
          "internalType": "uint256",
          "name": "",
          "type": "uint256"
        }
      ],
      "stateMutability": "view",
      "type": "function",
      "constant": true
    },
    {
      "inputs": [
        {
          "internalType": "address",
          "name": "asset",
          "type": "address"
        },
        {
          "internalType": "address",
          "name": "quote",
          "type": "address"
        }
      ],
      "name": "getBathPair",
      "outputs": [
        {
          "internalType": "address",
          "name": "pair",
          "type": "address"
        }
      ],
      "stateMutability": "view",
      "type": "function",
      "constant": true
    },
    {
      "inputs": [
        {
          "internalType": "address",
          "name": "quote",
          "type": "address"
        }
      ],
      "name": "doesQuoteExist",
      "outputs": [
        {
          "internalType": "bool",
          "name": "",
          "type": "bool"
        }
      ],
      "stateMutability": "view",
      "type": "function",
      "constant": true
    },
    {
      "inputs": [
        {
          "internalType": "address",
          "name": "asset",
          "type": "address"
        }
      ],
      "name": "doesAssetExist",
      "outputs": [
        {
          "internalType": "bool",
          "name": "",
          "type": "bool"
        }
      ],
      "stateMutability": "view",
      "type": "function",
      "constant": true
    },
    {
      "inputs": [
        {
          "internalType": "address",
          "name": "quote",
          "type": "address"
        }
      ],
      "name": "getBathTokenfromQuote",
      "outputs": [
        {
          "internalType": "address",
          "name": "",
          "type": "address"
        }
      ],
      "stateMutability": "view",
      "type": "function",
      "constant": true
    },
    {
      "inputs": [
        {
          "internalType": "address",
          "name": "asset",
          "type": "address"
        }
      ],
      "name": "getBathTokenfromAsset",
      "outputs": [
        {
          "internalType": "address",
          "name": "",
          "type": "address"
        }
      ],
      "stateMutability": "view",
      "type": "function",
      "constant": true
    },
    {
      "inputs": [
        {
          "internalType": "address",
          "name": "pair",
          "type": "address"
        }
      ],
      "name": "getBPSToStrats",
      "outputs": [
        {
          "internalType": "uint8",
          "name": "",
          "type": "uint8"
        }
      ],
      "stateMutability": "view",
      "type": "function",
      "constant": true
    },
    {
      "inputs": [
        {
          "internalType": "address",
          "name": "wouldBeStrategist",
          "type": "address"
        }
      ],
      "name": "isApprovedStrategist",
      "outputs": [
        {
          "internalType": "bool",
          "name": "",
          "type": "bool"
        }
      ],
      "stateMutability": "view",
      "type": "function",
      "constant": true
    },
    {
      "inputs": [
        {
          "internalType": "address",
          "name": "pair",
          "type": "address"
        }
      ],
      "name": "isApprovedPair",
      "outputs": [
        {
          "internalType": "bool",
          "name": "",
          "type": "bool"
        }
      ],
      "stateMutability": "view",
      "type": "function",
      "constant": true
    },
    {
      "inputs": [
        {
          "internalType": "address",
          "name": "strategist",
          "type": "address"
        }
      ],
      "name": "approveStrategist",
      "outputs": [],
      "stateMutability": "nonpayable",
      "type": "function"
    },
    {
      "inputs": [
        {
          "internalType": "address",
          "name": "pair",
          "type": "address"
        }
      ],
      "name": "removePair",
      "outputs": [],
      "stateMutability": "nonpayable",
      "type": "function"
    }
  ],
  "bytecode": "0x608060405234801561001057600080fd5b506113af806100206000396000f3fe608060405234801561001057600080fd5b506004361061025e5760003560e01c806368763e5111610146578063aa4eb2d2116100c3578063ca3a86cd11610087578063ca3a86cd146107be578063e43e2704146107e4578063e6a439051461080a578063f1be167914610838578063f851a44014610840578063fd58498e146108485761025e565b8063aa4eb2d21461070c578063ab511b9d14610732578063af6c9c1d14610762578063b3d7480e14610788578063c9dec361146107b65761025e565b80638adf50241161010a5780638adf50241461068c5780638b4f3b2c146106bb5780638f259e45146106d857806393e2aea4146106e0578063a8f096a4146103875761025e565b806368763e51146105ce57806369b8dc9e146105f45780636dcea85f1461061a57806378851f7c146106405780637c047720146106665761025e565b8063319ddafb116101df57806356b6d0d5116101a357806356b6d0d5146104f0578063599ff372146104f85780635a7a5cbc146105545780636071015d1461057157806360f71b2414610597578063680cb3f81461059f5761025e565b8063319ddafb1461043e578063382691df146104645780633de734841461048a5780634ec81af1146104925780635674def6146104ca5761025e565b8063158ef93e11610226578063158ef93e1461037f578063191a4378146103875780631f3cdd8a146103b557806320b46ff7146103f15780632f6bed9e1461041f5761025e565b806301df192514610263578063023fa1d01461029d57806306fdde03146102bc5780630c7d5cd8146103395780630f64afd014610353575b600080fd5b6102896004803603602081101561027957600080fd5b50356001600160a01b0316610850565b604080519115158252519081900360200190f35b6102ba600480360360208110156102b357600080fd5b5035610872565b005b6102c461088e565b6040805160208082528351818301528351919283929083019185019080838360005b838110156102fe5781810151838201526020016102e6565b50505050905090810190601f16801561032b5780820380516001836020036101000a031916815260200191505b509250505060405180910390f35b61034161091c565b60408051918252519081900360200190f35b6102ba6004803603604081101561036957600080fd5b506001600160a01b038135169060200135610922565b61028961099b565b6102ba6004803603604081101561039d57600080fd5b506001600160a01b03813581169160200135166109a4565b6103db600480360360208110156103cb57600080fd5b50356001600160a01b0316610a0a565b6040805160ff9092168252519081900360200190f35b6102ba6004803603604081101561040757600080fd5b506001600160a01b0381358116916020013516610a28565b6102ba6004803603602081101561043557600080fd5b50351515610a8e565b6102896004803603602081101561045457600080fd5b50356001600160a01b0316610abf565b6103db6004803603602081101561047a57600080fd5b50356001600160a01b0316610add565b610289610af2565b6102ba600480360360808110156104a857600080fd5b506001600160a01b038135169060208101359060408101359060600135610b00565b6102ba600480360360208110156104e057600080fd5b50356001600160a01b0316610bd1565b610341610c0a565b6105386004803603608081101561050e57600080fd5b5080356001600160a01b03908116916020810135821691604082013516906060013560ff16610c10565b604080516001600160a01b039092168252519081900360200190f35b6102ba6004803603602081101561056a57600080fd5b5035610de9565b6102896004803603602081101561058757600080fd5b50356001600160a01b0316610e05565b610538610e4e565b6102ba600480360360408110156105b557600080fd5b506001600160a01b038135169060200135600f0b610e5d565b6102ba600480360360208110156105e457600080fd5b50356001600160a01b0316610ebd565b6105386004803603602081101561060a57600080fd5b50356001600160a01b0316610ef8565b6102ba6004803603602081101561063057600080fd5b50356001600160a01b0316610f16565b6102896004803603602081101561065657600080fd5b50356001600160a01b0316610f4f565b6105386004803603602081101561067c57600080fd5b50356001600160a01b0316610f64565b6102ba600480360360408110156106a257600080fd5b50803560ff1690602001356001600160a01b0316610f82565b6102ba600480360360208110156106d157600080fd5b5035610fd4565b61034161100b565b6102ba600480360360408110156106f657600080fd5b506001600160a01b038135169060200135611011565b6102896004803603602081101561072257600080fd5b50356001600160a01b031661106e565b6102ba6004803603604081101561074857600080fd5b5080356001600160a01b0316906020013561ffff16611083565b6102ba6004803603602081101561077857600080fd5b50356001600160a01b03166110e4565b6105386004803603604081101561079e57600080fd5b506001600160a01b038135811691602001351661111c565b610341611146565b610289600480360360208110156107d457600080fd5b50356001600160a01b031661114c565b610289600480360360208110156107fa57600080fd5b50356001600160a01b031661117a565b6105386004803603604081101561082057600080fd5b506001600160a01b038135811691602001351661118f565b6105386111b5565b6105386111c4565b6103416111d3565b6001600160a01b03811660009081526007602052604090205460ff165b919050565b6002546001600160a01b0316331461088957600080fd5b600e55565b6000805460408051602060026001851615610100026000190190941693909304601f810184900484028201840190925281815292918301828280156109145780601f106108e957610100808354040283529160200191610914565b820191906000526020600020905b8154815290600101906020018083116108f757829003601f168201915b505050505081565b600d5481565b6002546001600160a01b0316331461093957600080fd5b816001600160a01b031663604b6a9c826040518263ffffffff1660e01b815260040180828152602001915050600060405180830381600087803b15801561097f57600080fd5b505af1158015610993573d6000803e3d6000fd5b505050505050565b600c5460ff1681565b6002546001600160a01b031633146109bb57600080fd5b816001600160a01b0316636dcea85f826040518263ffffffff1660e01b815260040180826001600160a01b03168152602001915050600060405180830381600087803b15801561097f57600080fd5b6001600160a01b031660009081526009602052604090205460ff1690565b6002546001600160a01b03163314610a3f57600080fd5b816001600160a01b031663f46901ed826040518263ffffffff1660e01b815260040180826001600160a01b03168152602001915050600060405180830381600087803b15801561097f57600080fd5b6002546001600160a01b03163314610aa557600080fd5b600c80549115156101000261ff0019909216919091179055565b6001600160a01b031660009081526008602052604090205460ff1690565b60096020526000908152604090205460ff1681565b600c54610100900460ff1681565b600c5460ff1615610b1057600080fd5b6040805180820190915260128082527152756269636f6e204261746820486f75736560701b6020909201918252610b49916000916112d8565b50600280546001600160a01b03191633179055600e8290556064831115610b6f57600080fd5b60008311610b7c57600080fd5b600d839055600f819055600380546001600160a01b0319166001600160a01b0386811691909117909155600254610bb39116610ebd565b5050600c805460ff1961ff0019909116610100171660011790555050565b6002546001600160a01b03163314610be857600080fd5b600280546001600160a01b0319166001600160a01b0392909216919091179055565b600d5490565b6002546000906001600160a01b03163314610c2a57600080fd5b836001600160a01b0316856001600160a01b03161415610c4957600080fd5b6001600160a01b038516610c5c57600080fd5b6001600160a01b038416610c6f57600080fd5b6001600160a01b0380861660009081526001602090815260408083208885168452909152902054610ca0911661114c565b15610caa57600080fd5b6001600160a01b038381166000818152600960209081526040808320805460ff191660ff891617905589851683526001825280832094891683529390529190912080546001600160a01b0319169091179055610d05836111d9565b610d7384846001600160a01b031663e22a78076040518163ffffffff1660e01b815260040160206040518083038186803b158015610d4257600080fd5b505afa158015610d56573d6000803e3d6000fd5b505050506040513d6020811015610d6c57600080fd5b50516111fd565b610de085846001600160a01b0316623acabc6040518163ffffffff1660e01b815260040160206040518083038186803b158015610daf57600080fd5b505afa158015610dc3573d6000803e3d6000fd5b505050506040513d6020811015610dd957600080fd5b505161126d565b50909392505050565b6002546001600160a01b03163314610e0057600080fd5b600f55565b6001600160a01b03811660009081526006602052604081205460ff16151560011480610e395750600c54610100900460ff16155b15610e465750600161086d565b50600061086d565b6003546001600160a01b031681565b6002546001600160a01b03163314610e7457600080fd5b816001600160a01b03166318447307826040518263ffffffff1660e01b81526004018082600f0b8152602001915050600060405180830381600087803b15801561097f57600080fd5b6002546001600160a01b03163314610ed457600080fd5b6001600160a01b03166000908152600660205260409020805460ff19166001179055565b6001600160a01b039081166000908152600a60205260409020541690565b6002546001600160a01b03163314610f2d57600080fd5b600380546001600160a01b0319166001600160a01b0392909216919091179055565b60066020526000908152604090205460ff1681565b6001600160a01b039081166000908152600b60205260409020541690565b6002546001600160a01b03163314610f9957600080fd5b60328260ff1610610fa957600080fd5b6001600160a01b03166000908152600960205260409020805460ff191660ff92909216919091179055565b6002546001600160a01b03163314610feb57600080fd5b6064811115610ff957600080fd5b6000811161100657600080fd5b600d55565b600f5481565b6002546001600160a01b0316331461102857600080fd5b816001600160a01b03166314a933b2826040518263ffffffff1660e01b815260040180828152602001915050600060405180830381600087803b15801561097f57600080fd5b60056020526000908152604090205460ff1681565b6002546001600160a01b0316331461109a57600080fd5b816001600160a01b031663028d01fe826040518263ffffffff1660e01b8152600401808261ffff168152602001915050600060405180830381600087803b15801561097f57600080fd5b6002546001600160a01b031633146110fb57600080fd5b6001600160a01b03166000908152600560205260409020805460ff19169055565b6001600160a01b039182166000908152600160209081526040808320938516835292905220541690565b600e5481565b6001600160a01b03811660009081526005602052604081205460ff16151560011415610e465750600161086d565b60046020526000908152604090205460ff1681565b60016020908152600092835260408084209091529082529020546001600160a01b031681565b6003546001600160a01b031690565b6002546001600160a01b031681565b600e5490565b6001600160a01b03166000908152600560205260409020805460ff19166001179055565b6001600160a01b03821660009081526007602052604090205460ff161561122357611269565b6001600160a01b038083166000908152600760209081526040808320805460ff19166001179055600a909152902080549183166001600160a01b03199092169190911790555b5050565b6001600160a01b03821660009081526008602052604090205460ff161561129357611269565b6001600160a01b0391821660009081526008602090815260408083208054600160ff19909116179055600b909152902080546001600160a01b03191691909216179055565b828054600181600116156101000203166002900490600052602060002090601f01602090048101928261130e5760008555611354565b82601f1061132757805160ff1916838001178555611354565b82800160010185558215611354579182015b82811115611354578251825591602001919060010190611339565b50611360929150611364565b5090565b5b80821115611360576000815560010161136556fea2646970667358221220a49510062bc1d608526545d574601a8a2e20006798c2e6717509feb249541e3164736f6c63430007060033",
  "immutableReferences": {},
  "source": "// SPDX-License-Identifier: BUSL-1.1\n\n/// @author Benjamin Hughes - Rubicon\n/// @notice This contract acts as the admin for the Rubicon Pools system\n/// @notice The BathHouse approves library contracts and initializes bathPairs\n\npragma solidity =0.7.6;\n\nimport \"./BathPair.sol\";\n\ncontract BathHouse {\n    string public name;\n\n    mapping(address => mapping(address => address)) public getPair;\n\n    address public admin;\n    address public RubiconMarketAddress;\n\n    // List of approved strategies\n    mapping(address => bool) public approvedBathTokens;\n    mapping(address => bool) public approvedPairs;\n    mapping(address => bool) public approvedStrategists;\n\n    mapping(address => bool) internal bathQuoteExists;\n    mapping(address => bool) internal bathAssetExists;\n    mapping(address => uint8) public propToStrategists;\n    mapping(address => address) internal quoteToBathQuote;\n    mapping(address => address) internal assetToBathAsset;\n\n    bool public initialized;\n    bool public permissionedStrategists; //if true strategists are permissioned\n\n    // Key, system-wide risk parameters for Pools\n    uint256 public reserveRatio; // proportion of the pool that must remain present in the pair\n\n    // The delay after which unfilled orders are cancelled\n    uint256 public timeDelay;\n\n    // Constraint variable for the max amount of outstanding market making pairs at a time\n    uint256 public maxOutstandingPairCount;\n\n    /// @dev Proxy-safe initialization of storage\n    function initialize(\n        address market,\n        uint256 _reserveRatio,\n        uint256 _timeDelay,\n        uint256 mopc\n    ) external {\n        require(!initialized);\n        name = \"Rubicon Bath House\";\n        admin = msg.sender;\n        timeDelay = _timeDelay;\n        require(_reserveRatio <= 100);\n        require(_reserveRatio > 0);\n        reserveRatio = _reserveRatio;\n\n        maxOutstandingPairCount = mopc;\n\n        RubiconMarketAddress = market;\n        approveStrategist(admin);\n        permissionedStrategists = true;\n        initialized = true;\n    }\n\n    function initBathPair(\n        address asset,\n        address quote,\n        address pair,\n        uint8 _propToStrategists\n    ) external onlyAdmin returns (address newPair) {\n        //calls initialize on two Bath Tokens and spins them up\n        require(asset != quote);\n        require(asset != address(0));\n        require(quote != address(0));\n\n        // Ensure the pair doesn't exist and approved\n        require(!isApprovedPair(getPair[asset][quote]));\n        propToStrategists[pair] = _propToStrategists;\n\n        getPair[asset][quote] = address(pair);\n\n        approvePair(address(pair));\n        addQuote(quote, BathPair(pair).getThisBathQuote());\n        addAsset(asset, BathPair(pair).getThisBathAsset());\n        return address(pair);\n    }\n\n    modifier onlyAdmin {\n        require(msg.sender == admin);\n        _;\n    }\n\n    function setBathHouseAdmin(address newAdmin) external onlyAdmin {\n        admin = newAdmin;\n    }\n\n    function setPermissionedStrategists(bool _new) external onlyAdmin {\n        permissionedStrategists = _new;\n    }\n\n    // Setter Functions for paramters - onlyAdmin\n    function setCancelTimeDelay(uint256 value) external onlyAdmin {\n        timeDelay = value;\n    }\n\n    function setReserveRatio(uint256 rr) external onlyAdmin {\n        require(rr <= 100);\n        require(rr > 0);\n        reserveRatio = rr;\n    }\n\n    function setPropToStrats(uint8 value, address pair) external onlyAdmin {\n        require(value < 50);\n        require(value >= 0);\n        propToStrategists[pair] = value;\n    }\n\n    function setMaxOutstandingPairCount(uint256 value) external onlyAdmin {\n        maxOutstandingPairCount = value;\n    }\n\n    function setBathTokenMarket(address bathToken, address newMarket)\n        external\n        onlyAdmin\n    {\n        BathToken(bathToken).setMarket(newMarket);\n    }\n\n    function setBathTokenBathHouse(address bathToken, address newAdmin)\n        external\n        onlyAdmin\n    {\n        BathToken(bathToken).setMarket(newAdmin);\n    }\n\n    function setBathTokenFeeBPS(address bathToken, uint256 newBPS)\n        external\n        onlyAdmin\n    {\n        BathToken(bathToken).setFeeBPS(newBPS);\n    }\n\n    function setFeeTo(address bathToken, address feeTo) external onlyAdmin {\n        BathToken(bathToken).setFeeTo(feeTo);\n    }\n\n    function setBathPairMOSBPS(address bathPair, uint16 mosbps)\n        external\n        onlyAdmin\n    {\n        BathPair(bathPair).setMaxOrderSizeBPS(mosbps);\n    }\n\n    function setBathPairSearchRadius(address bathPair, uint256 sr)\n        external\n        onlyAdmin\n    {\n        BathPair(bathPair).setSearchRadius(sr);\n    }\n\n    function setBathPairSCN(address bathPair, int128 val) external onlyAdmin {\n        BathPair(bathPair).setShapeCoefNum(val);\n    }\n\n    function setMarket(address newMarket) external onlyAdmin {\n        RubiconMarketAddress = newMarket;\n    }\n\n    // Getter Functions for parameters\n    function getMarket() external view returns (address) {\n        return RubiconMarketAddress;\n    }\n\n    function getReserveRatio() external view returns (uint256) {\n        return reserveRatio;\n    }\n\n    function getCancelTimeDelay() external view returns (uint256) {\n        return timeDelay;\n    }\n\n    function getBathPair(address asset, address quote)\n        external\n        view\n        returns (address pair)\n    {\n        return getPair[asset][quote];\n    }\n\n    function doesQuoteExist(address quote) external view returns (bool) {\n        return bathQuoteExists[quote];\n    }\n\n    function doesAssetExist(address asset) external view returns (bool) {\n        return bathAssetExists[asset];\n    }\n\n    function getBathTokenfromQuote(address quote)\n        external\n        view\n        returns (address)\n    {\n        return quoteToBathQuote[quote];\n    }\n\n    function getBathTokenfromAsset(address asset)\n        external\n        view\n        returns (address)\n    {\n        return assetToBathAsset[asset];\n    }\n\n    function getBPSToStrats(address pair) external view returns (uint8) {\n        return propToStrategists[pair];\n    }\n\n    // ** Security Checks used throughout Pools **\n    function isApprovedStrategist(address wouldBeStrategist)\n        external\n        view\n        returns (bool)\n    {\n        if (\n            approvedStrategists[wouldBeStrategist] == true ||\n            !permissionedStrategists\n        ) {\n            return true;\n        } else {\n            return false;\n        }\n    }\n\n    function isApprovedPair(address pair) public view returns (bool) {\n        if (approvedPairs[pair] == true) {\n            return true;\n        } else {\n            return false;\n        }\n    }\n\n    function approveStrategist(address strategist) public onlyAdmin {\n        approvedStrategists[strategist] = true;\n    }\n\n    function approvePair(address pair) internal {\n        approvedPairs[pair] = true;\n    }\n\n    function removePair(address pair) external onlyAdmin {\n        approvedPairs[pair] = false;\n    }\n\n    function addQuote(address quote, address bathQuote) internal {\n        if (bathQuoteExists[quote]) {\n            return;\n        } else {\n            bathQuoteExists[quote] = true;\n            quoteToBathQuote[quote] = bathQuote;\n        }\n    }\n\n    function addAsset(address asset, address bathAsset) internal {\n        if (bathAssetExists[asset]) {\n            return;\n        } else {\n            bathAssetExists[asset] = true;\n            assetToBathAsset[asset] = bathAsset;\n        }\n    }\n}\n",
  "sourcePath": "/home/ryan/Documents/_Projects/learning/optimism/rubicon_protocol/contracts/rubiconPools/BathHouse.sol",
  "compiler": {
    "name": "solc",
    "version": "0.7.6+commit.7338295f.Emscripten.clang"
  },
  "schemaVersion": "3.4.3",
  "updatedAt": "2021-11-11T01:25:44.576Z",
  "networkType": "ethereum",
  "devdoc": {
    "kind": "dev",
    "methods": {
      "initialize(address,uint256,uint256,uint256)": {
        "details": "Proxy-safe initialization of storage"
      }
    },
    "version": 1
  },
  "userdoc": {
    "kind": "user",
    "methods": {},
    "version": 1
  }
}