{
  "contractName": "USDCWithFaucet",
  "abi": [
    {
      "inputs": [
        {
          "internalType": "uint256",
          "name": "chainId_",
          "type": "uint256"
        },
        {
          "internalType": "address",
          "name": "_admin",
          "type": "address"
        },
        {
          "internalType": "string",
          "name": "_name",
          "type": "string"
        },
        {
          "internalType": "string",
          "name": "_symbol",
          "type": "string"
        }
      ],
      "stateMutability": "nonpayable",
      "type": "constructor"
    },
    {
      "anonymous": false,
      "inputs": [
        {
          "indexed": true,
          "internalType": "address",
          "name": "owner",
          "type": "address"
        },
        {
          "indexed": true,
          "internalType": "address",
          "name": "spender",
          "type": "address"
        },
        {
          "indexed": false,
          "internalType": "uint256",
          "name": "value",
          "type": "uint256"
        }
      ],
      "name": "Approval",
      "type": "event"
    },
    {
      "anonymous": true,
      "inputs": [
        {
          "indexed": true,
          "internalType": "bytes4",
          "name": "sig",
          "type": "bytes4"
        },
        {
          "indexed": true,
          "internalType": "address",
          "name": "usr",
          "type": "address"
        },
        {
          "indexed": true,
          "internalType": "bytes32",
          "name": "arg1",
          "type": "bytes32"
        },
        {
          "indexed": true,
          "internalType": "bytes32",
          "name": "arg2",
          "type": "bytes32"
        },
        {
          "indexed": false,
          "internalType": "bytes",
          "name": "data",
          "type": "bytes"
        }
      ],
      "name": "LogNote",
      "type": "event"
    },
    {
      "anonymous": false,
      "inputs": [
        {
          "indexed": true,
          "internalType": "address",
          "name": "from",
          "type": "address"
        },
        {
          "indexed": true,
          "internalType": "address",
          "name": "to",
          "type": "address"
        },
        {
          "indexed": false,
          "internalType": "uint256",
          "name": "value",
          "type": "uint256"
        }
      ],
      "name": "Transfer",
      "type": "event"
    },
    {
      "inputs": [],
      "name": "DOMAIN_SEPARATOR",
      "outputs": [
        {
          "internalType": "bytes32",
          "name": "",
          "type": "bytes32"
        }
      ],
      "stateMutability": "view",
      "type": "function",
      "constant": true
    },
    {
      "inputs": [],
      "name": "PERMIT_TYPEHASH",
      "outputs": [
        {
          "internalType": "bytes32",
          "name": "",
          "type": "bytes32"
        }
      ],
      "stateMutability": "view",
      "type": "function",
      "constant": true
    },
    {
      "inputs": [],
      "name": "admin",
      "outputs": [
        {
          "internalType": "address",
          "name": "",
          "type": "address"
        }
      ],
      "stateMutability": "view",
      "type": "function",
      "constant": true
    },
    {
      "inputs": [
        {
          "internalType": "address",
          "name": "owner",
          "type": "address"
        },
        {
          "internalType": "address",
          "name": "spender",
          "type": "address"
        }
      ],
      "name": "allowance",
      "outputs": [
        {
          "internalType": "uint256",
          "name": "",
          "type": "uint256"
        }
      ],
      "stateMutability": "view",
      "type": "function",
      "constant": true
    },
    {
      "inputs": [
        {
          "internalType": "address",
          "name": "spender",
          "type": "address"
        },
        {
          "internalType": "uint256",
          "name": "amount",
          "type": "uint256"
        }
      ],
      "name": "approve",
      "outputs": [
        {
          "internalType": "bool",
          "name": "",
          "type": "bool"
        }
      ],
      "stateMutability": "nonpayable",
      "type": "function"
    },
    {
      "inputs": [
        {
          "internalType": "address",
          "name": "account",
          "type": "address"
        }
      ],
      "name": "balanceOf",
      "outputs": [
        {
          "internalType": "uint256",
          "name": "",
          "type": "uint256"
        }
      ],
      "stateMutability": "view",
      "type": "function",
      "constant": true
    },
    {
      "inputs": [],
      "name": "decimals",
      "outputs": [
        {
          "internalType": "uint8",
          "name": "",
          "type": "uint8"
        }
      ],
      "stateMutability": "view",
      "type": "function",
      "constant": true
    },
    {
      "inputs": [
        {
          "internalType": "address",
          "name": "spender",
          "type": "address"
        },
        {
          "internalType": "uint256",
          "name": "subtractedValue",
          "type": "uint256"
        }
      ],
      "name": "decreaseAllowance",
      "outputs": [
        {
          "internalType": "bool",
          "name": "",
          "type": "bool"
        }
      ],
      "stateMutability": "nonpayable",
      "type": "function"
    },
    {
      "inputs": [
        {
          "internalType": "address",
          "name": "",
          "type": "address"
        }
      ],
      "name": "faucetCheck",
      "outputs": [
        {
          "internalType": "uint256",
          "name": "",
          "type": "uint256"
        }
      ],
      "stateMutability": "view",
      "type": "function",
      "constant": true
    },
    {
      "inputs": [
        {
          "internalType": "address",
          "name": "spender",
          "type": "address"
        },
        {
          "internalType": "uint256",
          "name": "addedValue",
          "type": "uint256"
        }
      ],
      "name": "increaseAllowance",
      "outputs": [
        {
          "internalType": "bool",
          "name": "",
          "type": "bool"
        }
      ],
      "stateMutability": "nonpayable",
      "type": "function"
    },
    {
      "inputs": [],
      "name": "name",
      "outputs": [
        {
          "internalType": "string",
          "name": "",
          "type": "string"
        }
      ],
      "stateMutability": "view",
      "type": "function",
      "constant": true
    },
    {
      "inputs": [],
      "name": "symbol",
      "outputs": [
        {
          "internalType": "string",
          "name": "",
          "type": "string"
        }
      ],
      "stateMutability": "view",
      "type": "function",
      "constant": true
    },
    {
      "inputs": [],
      "name": "timeDelay",
      "outputs": [
        {
          "internalType": "uint256",
          "name": "",
          "type": "uint256"
        }
      ],
      "stateMutability": "view",
      "type": "function",
      "constant": true
    },
    {
      "inputs": [],
      "name": "totalSupply",
      "outputs": [
        {
          "internalType": "uint256",
          "name": "",
          "type": "uint256"
        }
      ],
      "stateMutability": "view",
      "type": "function",
      "constant": true
    },
    {
      "inputs": [
        {
          "internalType": "address",
          "name": "recipient",
          "type": "address"
        },
        {
          "internalType": "uint256",
          "name": "amount",
          "type": "uint256"
        }
      ],
      "name": "transfer",
      "outputs": [
        {
          "internalType": "bool",
          "name": "",
          "type": "bool"
        }
      ],
      "stateMutability": "nonpayable",
      "type": "function"
    },
    {
      "inputs": [
        {
          "internalType": "address",
          "name": "sender",
          "type": "address"
        },
        {
          "internalType": "address",
          "name": "recipient",
          "type": "address"
        },
        {
          "internalType": "uint256",
          "name": "amount",
          "type": "uint256"
        }
      ],
      "name": "transferFrom",
      "outputs": [
        {
          "internalType": "bool",
          "name": "",
          "type": "bool"
        }
      ],
      "stateMutability": "nonpayable",
      "type": "function"
    },
    {
      "inputs": [],
      "name": "version",
      "outputs": [
        {
          "internalType": "string",
          "name": "",
          "type": "string"
        }
      ],
      "stateMutability": "view",
      "type": "function",
      "constant": true
    },
    {
      "inputs": [
        {
          "internalType": "address",
          "name": "",
          "type": "address"
        }
      ],
      "name": "wards",
      "outputs": [
        {
          "internalType": "uint256",
          "name": "",
          "type": "uint256"
        }
      ],
      "stateMutability": "view",
      "type": "function",
      "constant": true
    },
    {
      "inputs": [
        {
          "internalType": "address",
          "name": "guy",
          "type": "address"
        }
      ],
      "name": "rely",
      "outputs": [],
      "stateMutability": "nonpayable",
      "type": "function"
    },
    {
      "inputs": [
        {
          "internalType": "address",
          "name": "guy",
          "type": "address"
        }
      ],
      "name": "deny",
      "outputs": [],
      "stateMutability": "nonpayable",
      "type": "function"
    },
    {
      "inputs": [],
      "name": "faucet",
      "outputs": [
        {
          "internalType": "bool",
          "name": "",
          "type": "bool"
        }
      ],
      "stateMutability": "nonpayable",
      "type": "function"
    },
    {
      "inputs": [],
      "name": "adminMint",
      "outputs": [],
      "stateMutability": "nonpayable",
      "type": "function"
    },
    {
      "inputs": [
        {
          "internalType": "uint256",
          "name": "_timeDelay",
          "type": "uint256"
        }
      ],
      "name": "setTimeDelay",
      "outputs": [],
      "stateMutability": "nonpayable",
      "type": "function"
    },
    {
      "inputs": [
        {
          "internalType": "address",
          "name": "usr",
          "type": "address"
        },
        {
          "internalType": "uint256",
          "name": "wad",
          "type": "uint256"
        }
      ],
      "name": "push",
      "outputs": [],
      "stateMutability": "nonpayable",
      "type": "function"
    },
    {
      "inputs": [
        {
          "internalType": "address",
          "name": "usr",
          "type": "address"
        },
        {
          "internalType": "uint256",
          "name": "wad",
          "type": "uint256"
        }
      ],
      "name": "pull",
      "outputs": [],
      "stateMutability": "nonpayable",
      "type": "function"
    },
    {
      "inputs": [
        {
          "internalType": "address",
          "name": "src",
          "type": "address"
        },
        {
          "internalType": "address",
          "name": "dst",
          "type": "address"
        },
        {
          "internalType": "uint256",
          "name": "wad",
          "type": "uint256"
        }
      ],
      "name": "move",
      "outputs": [],
      "stateMutability": "nonpayable",
      "type": "function"
    }
  ],
  "bytecode": "0x60806040523480156200001157600080fd5b50604051620014a5380380620014a5833981810160405260808110156200003757600080fd5b815160208301516040808501805191519395929483019291846401000000008211156200006357600080fd5b9083019060208201858111156200007957600080fd5b82516401000000008111828201881017156200009457600080fd5b82525081516020918201929091019080838360005b83811015620000c3578181015183820152602001620000a9565b50505050905090810190601f168015620000f15780820380516001836020036101000a031916815260200191505b50604052602001805160405193929190846401000000008211156200011557600080fd5b9083019060208201858111156200012b57600080fd5b82516401000000008111828201881017156200014657600080fd5b82525081516020918201929091019080838360005b83811015620001755781810151838201526020016200015b565b50505050905090810190601f168015620001a35780820380516001836020036101000a031916815260200191505b50604052505082518391508290620001c39060039060208501906200045f565b508051620001d99060049060208401906200045f565b50506005805460ff19166012179055503360009081526006602090815260409182902060019081905584518583012083518085018552918252603160f81b9183019190915282517f8b73c3c69bb8fe3d512ecc4cf759cc79239f7b179b0ffacaa9a75d522b39400f81840152808401919091527fc89efdaa54c0f20c7adf612882df0950f5a951637e0307cdcb4c672f298b8bc66060820152608081018790523060a0808301919091528351808303909101815260c09091019092528151910120600955600780546001600160a01b038581166001600160a01b03199092169190911791829055620002d7911669d3c21bcecceda1000000620002e9565b5050620a8c00600a55506200050b9050565b6001600160a01b03821662000345576040805162461bcd60e51b815260206004820152601f60248201527f45524332303a206d696e7420746f20746865207a65726f206164647265737300604482015290519081900360640190fd5b6200035360008383620003f8565b6200036f81600254620003fd60201b62000a201790919060201c565b6002556001600160a01b03821660009081526020818152604090912054620003a291839062000a20620003fd821b17901c565b6001600160a01b0383166000818152602081815260408083209490945583518581529351929391927fddf252ad1be2c89b69c2b068fc378daa952ba7f163c4a11628f55a4df523b3ef9281900390910190a35050565b505050565b60008282018381101562000458576040805162461bcd60e51b815260206004820152601b60248201527f536166654d6174683a206164646974696f6e206f766572666c6f770000000000604482015290519081900360640190fd5b9392505050565b828054600181600116156101000203166002900490600052602060002090601f016020900481019282620004975760008555620004e2565b82601f10620004b257805160ff1916838001178555620004e2565b82800160010185558215620004e2579182015b82811115620004e2578251825591602001919060010190620004c5565b50620004f0929150620004f4565b5090565b5b80821115620004f05760008155600101620004f5565b610f8a806200051b6000396000f3fe608060405234801561001057600080fd5b506004361061018e5760003560e01c806395d89b41116100de578063bd5c2b2511610097578063dd62ed3e11610071578063dd62ed3e146104b1578063de5f72fd146104df578063f2d5d56b146104e7578063f851a440146105135761018e565b8063bd5c2b251461045d578063bf353dbb14610483578063c9dec361146104a95761018e565b806395d89b41146103755780639c52a7f11461037d578063a457c2d7146103a3578063a9059cbb146103cf578063b753a98c146103fb578063bb35783b146104275761018e565b80633644e5151161014b57806354fd4d501161012557806354fd4d501461031957806365fae35e1461032157806370a0823114610347578063895fc7881461036d5761018e565b80633644e515146102c657806339509351146102ce57806339af6ba9146102fa5761018e565b806306fdde0314610193578063095ea7b31461021057806318160ddd1461025057806323b872dd1461026a57806330adf81f146102a0578063313ce567146102a8575b600080fd5b61019b610537565b6040805160208082528351818301528351919283929083019185019080838360005b838110156101d55781810151838201526020016101bd565b50505050905090810190601f1680156102025780820380516001836020036101000a031916815260200191505b509250505060405180910390f35b61023c6004803603604081101561022657600080fd5b506001600160a01b0381351690602001356105ce565b604080519115158252519081900360200190f35b6102586105eb565b60408051918252519081900360200190f35b61023c6004803603606081101561028057600080fd5b506001600160a01b038135811691602081013590911690604001356105f1565b610258610678565b6102b061069c565b6040805160ff9092168252519081900360200190f35b6102586106a5565b61023c600480360360408110156102e457600080fd5b506001600160a01b0381351690602001356106ab565b6103176004803603602081101561031057600080fd5b50356106f9565b005b61019b610715565b6103176004803603602081101561033757600080fd5b50356001600160a01b0316610732565b6102586004803603602081101561035d57600080fd5b50356001600160a01b03166107a8565b6103176107c3565b61019b6107f0565b6103176004803603602081101561039357600080fd5b50356001600160a01b0316610851565b61023c600480360360408110156103b957600080fd5b506001600160a01b0381351690602001356108c4565b61023c600480360360408110156103e557600080fd5b506001600160a01b03813516906020013561092c565b6103176004803603604081101561041157600080fd5b506001600160a01b038135169060200135610940565b6103176004803603606081101561043d57600080fd5b506001600160a01b03813581169160208101359091169060400135610950565b6102586004803603602081101561047357600080fd5b50356001600160a01b0316610961565b6102586004803603602081101561049957600080fd5b50356001600160a01b0316610973565b610258610985565b610258600480360360408110156104c757600080fd5b506001600160a01b038135811691602001351661098b565b61023c6109b6565b610317600480360360408110156104fd57600080fd5b506001600160a01b038135169060200135610a06565b61051b610a11565b604080516001600160a01b039092168252519081900360200190f35b60038054604080516020601f60026000196101006001881615020190951694909404938401819004810282018101909252828152606093909290918301828280156105c35780601f10610598576101008083540402835291602001916105c3565b820191906000526020600020905b8154815290600101906020018083116105a657829003601f168201915b505050505090505b90565b60006105e26105db610a81565b8484610a85565b50600192915050565b60025490565b60006105fe848484610b71565b61066e8461060a610a81565b61066985604051806060016040528060288152602001610ebf602891396001600160a01b038a16600090815260016020526040812090610648610a81565b6001600160a01b031681526020810191909152604001600020549190610ccc565b610a85565b5060019392505050565b7fea2aa0a1be11a07ed86d755c93467f4f82362b452371d1ba94d1715123511acb81565b60055460ff1690565b60095481565b60006105e26106b8610a81565b8461066985600160006106c9610a81565b6001600160a01b03908116825260208083019390935260409182016000908120918c168152925290205490610a20565b6007546001600160a01b0316331461071057600080fd5b600a55565b604051806040016040528060018152602001603160f81b81525081565b3360009081526006602052604090205460011461078b576040805162461bcd60e51b815260206004820152601260248201527111185a4bdb9bdd0b585d5d1a1bdc9a5e995960721b604482015290519081900360640190fd5b6001600160a01b0316600090815260066020526040902060019055565b6001600160a01b031660009081526020819052604090205490565b6007546001600160a01b031633146107da57600080fd5b6107ee3369021e19e0c9bab2400000610d63565b565b60048054604080516020601f60026000196101006001881615020190951694909404938401819004810282018101909252828152606093909290918301828280156105c35780601f10610598576101008083540402835291602001916105c3565b336000908152600660205260409020546001146108aa576040805162461bcd60e51b815260206004820152601260248201527111185a4bdb9bdd0b585d5d1a1bdc9a5e995960721b604482015290519081900360640190fd5b6001600160a01b0316600090815260066020526040812055565b60006105e26108d1610a81565b8461066985604051806060016040528060258152602001610f3060259139600160006108fb610a81565b6001600160a01b03908116825260208083019390935260409182016000908120918d16815292529020549190610ccc565b60006105e2610939610a81565b8484610b71565b61094b3383836105f1565b505050565b61095b8383836105f1565b50505050565b60086020526000908152604090205481565b60066020526000908152604090205481565b600a5481565b6001600160a01b03918216600090815260016020908152604080832093909416825291909152205490565b600a54336000908152600860205260408120549091014210156109db575060006105cb565b6109ee33683635c9adc5dea00000610d63565b50336000908152600860205260409020429055600190565b61094b8233836105f1565b6007546001600160a01b031681565b600082820183811015610a7a576040805162461bcd60e51b815260206004820152601b60248201527f536166654d6174683a206164646974696f6e206f766572666c6f770000000000604482015290519081900360640190fd5b9392505050565b3390565b6001600160a01b038316610aca5760405162461bcd60e51b8152600401808060200182810382526024815260200180610f0c6024913960400191505060405180910390fd5b6001600160a01b038216610b0f5760405162461bcd60e51b8152600401808060200182810382526022815260200180610e776022913960400191505060405180910390fd5b6001600160a01b03808416600081815260016020908152604080832094871680845294825291829020859055815185815291517f8c5be1e5ebec7d5bd14f71427d1e84f3dd0314c0f7b2291e5b200ac8c7c3b9259281900390910190a3505050565b6001600160a01b038316610bb65760405162461bcd60e51b8152600401808060200182810382526025815260200180610ee76025913960400191505060405180910390fd5b6001600160a01b038216610bfb5760405162461bcd60e51b8152600401808060200182810382526023815260200180610e546023913960400191505060405180910390fd5b610c0683838361094b565b610c4381604051806060016040528060268152602001610e99602691396001600160a01b0386166000908152602081905260409020549190610ccc565b6001600160a01b038085166000908152602081905260408082209390935590841681522054610c729082610a20565b6001600160a01b038084166000818152602081815260409182902094909455805185815290519193928716927fddf252ad1be2c89b69c2b068fc378daa952ba7f163c4a11628f55a4df523b3ef92918290030190a3505050565b60008184841115610d5b5760405162461bcd60e51b81526004018080602001828103825283818151815260200191508051906020019080838360005b83811015610d20578181015183820152602001610d08565b50505050905090810190601f168015610d4d5780820380516001836020036101000a031916815260200191505b509250505060405180910390fd5b505050900390565b6001600160a01b038216610dbe576040805162461bcd60e51b815260206004820152601f60248201527f45524332303a206d696e7420746f20746865207a65726f206164647265737300604482015290519081900360640190fd5b610dca6000838361094b565b600254610dd79082610a20565b6002556001600160a01b038216600090815260208190526040902054610dfd9082610a20565b6001600160a01b0383166000818152602081815260408083209490945583518581529351929391927fddf252ad1be2c89b69c2b068fc378daa952ba7f163c4a11628f55a4df523b3ef9281900390910190a3505056fe45524332303a207472616e7366657220746f20746865207a65726f206164647265737345524332303a20617070726f766520746f20746865207a65726f206164647265737345524332303a207472616e7366657220616d6f756e7420657863656564732062616c616e636545524332303a207472616e7366657220616d6f756e74206578636565647320616c6c6f77616e636545524332303a207472616e736665722066726f6d20746865207a65726f206164647265737345524332303a20617070726f76652066726f6d20746865207a65726f206164647265737345524332303a2064656372656173656420616c6c6f77616e63652062656c6f77207a65726fa264697066735822122010af2215a86c7e7760111cac9845ab9f9ab31c1d8ad9d110d9c6298a3558ee6f64736f6c63430007060033",
  "immutableReferences": {},
  "source": "// SPDX-License-Identifier: UNLICENSED\n\n// hevm: flattened sources of /nix/store/8xb41r4qd0cjb63wcrxf1qmfg88p0961-dss-6fd7de0/src/dai.sol\npragma solidity =0.7.6;\n\n// import \"./IERC20.sol\";\nimport \"@openzeppelin/contracts/token/ERC20/ERC20.sol\";\n\n////// /nix/store/8xb41r4qd0cjb63wcrxf1qmfg88p0961-dss-6fd7de0/src/lib.sol\n// This program is free software: you can redistribute it and/or modify\n// it under the terms of the GNU General Public License as published by\n// the Free Software Foundation, either version 3 of the License, or\n// (at your option) any later version.\n\n// This program is distributed in the hope that it will be useful,\n// but WITHOUT ANY WARRANTY; without even the implied warranty of\n// MERCHANTABILITY or FITNESS FOR A PARTICULAR PURPOSE.  See the\n// GNU General Public License for more details.\n\n// You should have received a copy of the GNU General Public License\n// along with this program.  If not, see <http://www.gnu.org/licenses/>.\n\ncontract LibNote {\n    event LogNote(\n        bytes4 indexed sig,\n        address indexed usr,\n        bytes32 indexed arg1,\n        bytes32 indexed arg2,\n        bytes data\n    ) anonymous;\n}\n\n////// /nix/store/8xb41r4qd0cjb63wcrxf1qmfg88p0961-dss-6fd7de0/src/dai.sol\n// Copyright (C) 2017, 2018, 2019 dbrock, rain, mrchico\n\n// This program is free software: you can redistribute it and/or modify\n// it under the terms of the GNU Affero General Public License as published by\n// the Free Software Foundation, either version 3 of the License, or\n// (at your option) any later version.\n//\n// This program is distributed in the hope that it will be useful,\n// but WITHOUT ANY WARRANTY; without even the implied warranty of\n// MERCHANTABILITY or FITNESS FOR A PARTICULAR PURPOSE.  See the\n// GNU Affero General Public License for more details.\n//\n// You should have received a copy of the GNU Affero General Public License\n// along with this program.  If not, see <https://www.gnu.org/licenses/>.\n\n/* pragma solidity 0.5.12; */\n\n/* import \"./lib.sol\"; */\n\ncontract USDCWithFaucet is LibNote, ERC20 {\n    // --- Auth ---\n    mapping(address => uint256) public wards;\n    address public admin;\n\n    function rely(address guy) external auth {\n        wards[guy] = 1;\n    }\n\n    function deny(address guy) external auth {\n        wards[guy] = 0;\n    }\n\n    modifier auth {\n        require(wards[msg.sender] == 1, \"Dai/not-authorized\");\n        _;\n    }\n\n    // --- ERC20 Data ---\n    string public constant version = \"1\";\n    mapping(address => uint256) public faucetCheck;\n\n    // --- Math ---\n    function add(uint256 x, uint256 y) internal pure returns (uint256 z) {\n        require((z = x + y) >= x);\n    }\n\n    function sub(uint256 x, uint256 y) internal pure returns (uint256 z) {\n        require((z = x - y) <= x);\n    }\n\n    // --- EIP712 niceties ---\n    bytes32 public DOMAIN_SEPARATOR;\n    // bytes32 public constant PERMIT_TYPEHASH = keccak256(\"Permit(address holder,address spender,uint256 nonce,uint256 expiry,bool allowed)\");\n    bytes32 public constant PERMIT_TYPEHASH =\n        0xea2aa0a1be11a07ed86d755c93467f4f82362b452371d1ba94d1715123511acb;\n    uint256 public timeDelay;\n\n    constructor(\n        uint256 chainId_,\n        address _admin,\n        string memory _name,\n        string memory _symbol\n    ) ERC20(_name, _symbol) {\n        wards[msg.sender] = 1;\n        DOMAIN_SEPARATOR = keccak256(\n            abi.encode(\n                keccak256(\n                    \"EIP712Domain(string name,string version,uint256 chainId,address verifyingContract)\"\n                ),\n                keccak256(bytes(_name)),\n                keccak256(bytes(version)),\n                chainId_,\n                address(this)\n            )\n        );\n        admin = _admin;\n        _mint(admin, 1000000e18);\n        timeDelay = 8 days;\n    }\n\n    // --- Token ---\n    function faucet() external returns (bool) {\n        if (block.timestamp < faucetCheck[msg.sender] + timeDelay) {\n            return false;\n        }\n        _mint(msg.sender, 1000e18);\n        faucetCheck[msg.sender] = block.timestamp;\n        return true;\n    }\n\n    function adminMint() external {\n        require(admin == msg.sender);\n        _mint(msg.sender, 10000e18);\n    }\n\n    function setTimeDelay(uint256 _timeDelay) external {\n        require(admin == msg.sender);\n        timeDelay = _timeDelay;\n    }\n\n    // --- Alias ---\n    function push(address usr, uint256 wad) external {\n        transferFrom(msg.sender, usr, wad);\n    }\n\n    function pull(address usr, uint256 wad) external {\n        transferFrom(usr, msg.sender, wad);\n    }\n\n    function move(\n        address src,\n        address dst,\n        uint256 wad\n    ) external {\n        transferFrom(src, dst, wad);\n    }\n}\n",
  "sourcePath": "/home/ryan/Documents/_Projects/learning/optimism/rubicon_protocol/contracts/peripheral_contracts/USDCWithFaucet.sol",
  "compiler": {
    "name": "solc",
    "version": "0.7.6+commit.7338295f.Emscripten.clang"
  },
  "schemaVersion": "3.4.3",
  "updatedAt": "2021-11-11T01:25:43.120Z",
  "networkType": "ethereum",
  "devdoc": {
    "kind": "dev",
    "methods": {
      "allowance(address,address)": {
        "details": "See {IERC20-allowance}."
      },
      "approve(address,uint256)": {
        "details": "See {IERC20-approve}. Requirements: - `spender` cannot be the zero address."
      },
      "balanceOf(address)": {
        "details": "See {IERC20-balanceOf}."
      },
      "decimals()": {
        "details": "Returns the number of decimals used to get its user representation. For example, if `decimals` equals `2`, a balance of `505` tokens should be displayed to a user as `5,05` (`505 / 10 ** 2`). Tokens usually opt for a value of 18, imitating the relationship between Ether and Wei. This is the value {ERC20} uses, unless {_setupDecimals} is called. NOTE: This information is only used for _display_ purposes: it in no way affects any of the arithmetic of the contract, including {IERC20-balanceOf} and {IERC20-transfer}."
      },
      "decreaseAllowance(address,uint256)": {
        "details": "Atomically decreases the allowance granted to `spender` by the caller. This is an alternative to {approve} that can be used as a mitigation for problems described in {IERC20-approve}. Emits an {Approval} event indicating the updated allowance. Requirements: - `spender` cannot be the zero address. - `spender` must have allowance for the caller of at least `subtractedValue`."
      },
      "increaseAllowance(address,uint256)": {
        "details": "Atomically increases the allowance granted to `spender` by the caller. This is an alternative to {approve} that can be used as a mitigation for problems described in {IERC20-approve}. Emits an {Approval} event indicating the updated allowance. Requirements: - `spender` cannot be the zero address."
      },
      "name()": {
        "details": "Returns the name of the token."
      },
      "symbol()": {
        "details": "Returns the symbol of the token, usually a shorter version of the name."
      },
      "totalSupply()": {
        "details": "See {IERC20-totalSupply}."
      },
      "transfer(address,uint256)": {
        "details": "See {IERC20-transfer}. Requirements: - `recipient` cannot be the zero address. - the caller must have a balance of at least `amount`."
      },
      "transferFrom(address,address,uint256)": {
        "details": "See {IERC20-transferFrom}. Emits an {Approval} event indicating the updated allowance. This is not required by the EIP. See the note at the beginning of {ERC20}. Requirements: - `sender` and `recipient` cannot be the zero address. - `sender` must have a balance of at least `amount`. - the caller must have allowance for ``sender``'s tokens of at least `amount`."
      }
    },
    "version": 1
  },
  "userdoc": {
    "kind": "user",
    "methods": {},
    "version": 1
  }
}